:100000000C9433030C9450030C9450030C9463250C
:100010000C9450030C9450030C9450030C94500314
:100020000C9450030C9450030C94190F0C945B0E19
:100030000C9424210C9450030C9450030C94500302
:100040000C9450030C9450030C9450030C945003E4
:100050000C9450030C94F00F0C9450030C94500328
:100060000C9450030C9450030C9450030C945003C4
:100070000C9450030C9450030C9450030C945003B4
:100080000C9450030C9450030C9450030C945003A4
:100090000C9450030C9450030C9450030C94500394
:1000A0000C9450030C9450030C9450034E06C2065B
:1000B0005606200624065A0627065D0668063206FE
:1000C000B80636066C063A0670069A063E067406B0
:1000D000A40644067A0684062B0661062E066406EC
:1000E00049067F069006B006B2061C065206CB06ED
:1000F000F106F706E506EB06FD06030709071108FA
:10010000110843084308D408F008200A200AF5081B
:100110008309940994097A0CA10C390EA10C390EAB
:10012000E90C0C0D390EFB0D0E0E2D6B62206C6967
:100130006C7935382F72657631202D6B6D206268B1
:1001400061726174687965730101280020636F6DC5
:1001500070696C65200020666C6173682000716DA9
:100160006B0005010902A10185020901A100050931
:10017000190129081500250195087501810205015D
:10018000093009311581257F9502750881060938E6
:100190001581257F950175088106050C0A38021521
:1001A00081257F950175088106C0C005010980A1E0
:1001B00001850319012AB700150126B700950175BD
:1001C000108100C0050C0901A101850419012AA0B4
:1001D00002150126A002950175108100C0050109D4
:1001E00006A101050719E029E71500250195087505
:1001F0000181029501750881010507190029FF1584
:100200000026FF00950675088100050819012905DB
:100210001500250195057501910295017503910160
:10022000C009023B00020100A0FA0904000001031A
:100230000101000921110100012244000705810389
:100240000800010904010001030000000921110157
:100250000001227B00070582032000011201000239
:1002600000000008D8042DEB0001010200010E037C
:100270004C0069006C007900350038000000100364
:100280006C0069006C00690075006D00730000006F
:100290000403090429001E001F0020002100220081
:1002A0002B4414001A00090013000500292104281A
:1002B0001524162217210A27A2521D001B00060032
:1002C0000700190000002824E3002A412C00587C74
:1002D0002A002700260025002400230034003300D4
:1002E0001C0018000F000D002D0012280C240822FD
:1002F0001121102F2E003800370036000B000E00A1
:10030000000000000000C25228224C00017C007C4A
:100310000000480000004C002302240225022602AF
:1003200027022A0035001E281F24202221212227EF
:10033000D100CF00CE00CD00D000D20000000100DF
:1003400001000100010035022A0026024500440098
:1003500043003100000027024200410040002F000E
:1003600000002F023F003E003D0030000000300240
:100370003C003B003A003800000001000100010091
:1003800001003102537C547C0000CD000000557CFC
:100390000000D100CF00CE00D0000000567CE3006A
:1003A000E200E100E0007E00577C7A007B007C00E8
:1003B00000007D00000001000100010001000100BB
:1003C000000000000000000000000000D100D90083
:1003D0004D0052004A004B004600DA004F00510029
:1003E00050004E000000000000000000000000006F
:1003F00000000100010001000100010000000000F8
:1004000000000000000000000000000000000000EC
:1004100000000000000000000000000000000000DC
:1004200000000000000000000000000000000100CB
:1004300001000100010000000000000000000000B9
:1004400000000000000000000000000000000000AC
:10045000000000000000000000000000000000009C
:100460000000000000000000000001000100010089
:100470000100000000000000000000000000A800D3
:1004800000000000AC00AE00AB00A90000000000BE
:10049000000000000000AA000000000000000000B2
:1004A0000000000000000100010001000100000048
:1004B0002A00000054000000000000000000550069
:1004C0002600250024000000000056002300220022
:1004D000210000000000570020001F001E00270020
:1004E000000001000100010001000000715761409F
:1004F000343133410071774034313334000102E24A
:100500000102E1780103E10103E2000102E20102DC
:10051000E1640103E10103E20068747470733A2F2F
:100520002F73746172742E6475636B6475636B678B
:100530006F2E636F6D0A00627372696E6976617304
:10054000616E4064616C65742E636F6D00627372DE
:10055000696E69766173616E006268617261746868
:100560007965734074656368636F6E6174697665FD
:100570002E636F6D006268617261746879657340A3
:100580006F75746C6F6F6B2E636F6D006268617254
:100590006174687965732E696E40676D61696C2E50
:1005A000636F6D0062686172617468796573004F92
:1005B0006B61792E000000000000000000000000C8
:1005C000000000000000000000000000000000002B
:1005D0000000000000000000007E0F00D4FFFFFFBD
:1005E000C70000007800000000000000002A2B284F
:1005F00000000000000000000000000000000000FB
:1006000029000000002C1E34202122243426272516
:100610002E362D3738271E1F20212223242526334E
:1006200033362E37381F0405060708090A0B0C0D50
:100630000E0F101112131415161718191A1B1C1D62
:100640002F3130232D350405060708090A0B0C0D40
:100650000E0F101112131415161718191A1B1C1D42
:100660002F3130354C0011241FBECFEFDAE0DEBF52
:10067000CDBF11E0A0E0B1E0E6EAFEE402C00590E3
:100680000D92AC36B107D9F722E0ACE6B1E001C07B
:100690001D92A739B207E1F70E9466160C94512704
:1006A0000C940000A0E0B0E0E8E5F3E00C948D26A7
:1006B000DC0114962C91222309F4EDC67C0161E043
:1006C0000E94B71EEC018F31B4E29B0709F140F4A0
:1006D0008132F1E29F07A9F18032924229F148C0AC
:1006E000C23287E2D807B9F1CE3198E2D90709F0D2
:1006F0003FC0D70116968C911697807F09F447C0AA
:1007000015968C91882309F442C08EE192E009C0CD
:10071000F7018681807FD9F185818823C1F18FE13E
:1007200092E00E94122015C2D70116968C9116975E
:10073000807F69F115968C91882349F180E292E0DF
:10074000F0CFF7018681807F11F185818823F9F050
:1007500081E292E0E6CFD70116968C911697807FC2
:10076000B1F015968C91882391F082E292E0D9CF76
:10077000C337BCE7DB0709F4B4C1C23AF2E5DF07CF
:1007800031F1A0F4CE01905281159042A0F4F7010E
:100790008681807F99F48D2F99278F7199278230D8
:1007A0009105A9F0429709F4AAC108C0C23BB2E57D
:1007B000DB0709F4A4C1C13ED10549F0CE01853E55
:1007C000910539F080915D02882371F15EC081EE60
:1007D00090E09C012770332781E090E001C0880FF2
:1007E0002A95EAF730915D0220916E01332361F082
:1007F000D70115963C91332311F0822B02C08095CE
:10080000822380936E01A5C1322F3823D9F2982F0D
:100810009095292320936E010E94EC14F7018581A5
:10082000882309F496C1CECFD70115968C918823E1
:1008300009F4E0C0C13ED10521F0C23AB2E5DB07C0
:1008400009F580917101882371F0F701828193810C
:1008500020916F0130917001821B930B8F3F9F4756
:1008600010F00E94C22381E080937101D70112969B
:100870008D919C91139788539F4F90937001809313
:100880006F019AC01092710197C000915A02D090E6
:10089000E0010E944D108056904F90935C0280932F
:1008A0005B02F7011581112309F4A4C00D290D790C
:1008B00009F06CC0C034F2E5DF07B0F4C11522E5E1
:1008C000D20708F079C0C11580E4D80740F4C115FB
:1008D00090E2D90738F5C63ED105D1F56DC0C115F6
:1008E000A0E5DA0770F134C0C03EB2E5DB07A0F442
:1008F000C03CE2E5DE0708F05FC0C036F2E5DF0786
:1009000038F1C03A22E5D20708F456C0C43B82E56C
:10091000D80709F451C01CC0CE0187579C470297E5
:10092000B8F44AC0D70116968C91807F71F48D2F50
:100930008F71843109F440C0863141F586EE92E131
:1009400008C0F7018681807FD9F1CE01992701C0C7
:10095000CE011092D5018832910530F48E31910587
:10096000F8F4049798F00EC08D32910559F018F400
:100970008A97B1F00BC08C34910591F08D32924082
:1009800079F004C082E08093D5010AC00E94B823A8
:1009900090915A0280916E01892B80935A020CC06B
:1009A00080916E01882331F09091D50182E08927F2
:1009B0008093D5010E94F314F70115811123E1F012
:1009C000CE352CE7D20761F0CF358CE7D80761F040
:1009D000CD359CE7D90781F480910001811104C0D5
:1009E00081E080930001B5C01092000180E00E9478
:1009F0002B23AFC0F701158180910001882309F4F2
:100A0000BBC06E01A0EECA1AD1080091E00180912E
:100A1000D101082B80915A02082BB8E0CB16D104E3
:100A200080F49E012770332781E090E001C0880F99
:100A30002A95EAF7112311F0082B2BC08095082383
:100A400028C0112379F0D0937301C09372010E94E2
:100A500041106093660270936702809368029093DE
:100A6000690213C08091720190917301C817D90770
:100A700081F410927301109272011092660210922A
:100A80006702109268021092690210926E02109230
:100A90006D0280916F0290917002009709F46CC012
:100AA000E8E0CE16D10438F4602F0E94982381111B
:100AB00063C081E013C0DC012D913C91C217D307C4
:100AC00029F4111106C010926C0207C0112309F419
:100AD00053C0FC01818585FD4FC080E00E942B231F
:100AE0004BC0F70185818823A1F180915D028823A5
:100AF00019F00E94B8232DC00E94C2232AC085EE9F
:100B000090E05DCECE0190548E018115904108F4A5
:100B100048C080917302853008F060C0811106C022
:100B20000E944D1090937202809371028091730223
:100B3000E82FF0E0EE0FFF1FE357FD4F1183008316
:100B40008F5F809373020E944D1090937202809386
:100B500071028091D401877009F49DC4D701159664
:100B60008C91882309F497C480911A0282FF93C460
:100B700082E00E944C158FC4D70115968C91882372
:100B800089F180913002882309F47FC40E94D12228
:100B9000811109C0CE0190528115904208F0B2CF68
:100BA0008E011127B6CFC8358CE7D807D9F48091CC
:100BB000300281111EC081E0809330020E944D10EE
:100BC0009093720280937102109273028AE0EDE8B2
:100BD000F2E0DF011D928A95E9F70BC01092300216
:100BE0000E944720FE01E851FC47E730F10508F478
:100BF000E8C0F7018581882309F414C110928302AB
:100C00009E0130572332310508F00CC184E090E09A
:100C10000E94C32690931A0280931902FE01E150AC
:100C2000F047E232F10520F4EA5AFF4F0C942127F5
:100C3000809119028160ACC080911A028860B4C0B2
:100C4000809119028260A4C08091190220C0809115
:100C5000190288609DC080911A021EC080911A02FC
:100C60008260A2C080911902806192C080911902B5
:100C700080628EC08091190280648AC00E94DB1C51
:100C800080911902806884C0809119028860846014
:100C90007FC080911A028260816086C080911902B3
:100CA0008E7F76C080911A02877F7EC08091190264
:100CB0008D7F6EC08091190220C080911902877FBC
:100CC00067C080911A021EC080911A028D7F6CC08D
:100CD000809119028F7E5CC0809119028F7D58C06F
:100CE000809119028F7B54C00E94DB1C80911902F5
:100CF0008F774EC080911902877F8B7F49C080918A
:100D00001A028D7F8E7F50C08091190282FB2227AC
:100D100020F991E0922790FB82F990FB83F938C08B
:100D200080911A02982F909591708E7F892B90FB5D
:100D300081F93AC08091190286FB222720F991E0BF
:100D4000922790FB86F924C00E94DB1C8091190237
:100D500087FB222720F991E0922790FB87F918C0A2
:100D600061E001C060E08EE090E00E94D9261EC0E4
:100D70008091190284FB222720F991E0922790FBB1
:100D800084F906C080911902982F909590FB80F904
:100D9000809319020BC080911A0283FB222720F94D
:100DA00091E0922790FB83F980931A0260911902D7
:100DB00070911A0284E090E00E94F7260E94DB1CEA
:100DC000C8CEE858FF4F0C94212706E221EE41EEF1
:100DD0006AE17CE723C007E225EE45EE6BE17CE7A4
:100DE0001DC006E221EE40EE68E17CE717C007E295
:100DF00025EE44EE69E17CE711C006E221EE42EE09
:100E00006CE17CE70BC007E225EE46EE6DE17CE786
:100E100005C008E221E045EE6EE17CE7C7010E94D3
:100E2000CE2197CEC631BCE7DB0741F590915A023F
:100E3000292F2A7A987861F48823A1F081E0211182
:100E400001C080E080937401222331F065E305C086
:100E5000882341F01092740169E282E592E00E94D9
:100E6000592109C080917401882311F085E301C0E4
:100E700089E20E944D210E94F3146BCEC737ECE744
:100E8000DE0731F4882311F081E009C081E00BC056
:100E9000C837FCE7DF0779F4882321F082E00E945D
:100EA000C61C03C082E00E94B41C43E062E081E003
:100EB0000E94891C4ECE882309F46BC0C430FCE725
:100EC000DF0791F178F4C1308CE7D807F1F0C33037
:100ED0009CE7D907A1F0C115DC4709F049C00E9481
:100EE000AF1F37CECB35BCE7DB07D1F0CC35ECE715
:100EF000DE0771F0CA35DC47D9F581E012C06FEF2B
:100F00007FEF80E090E00E94F7260E94991F21CE9B
:100F100080911A0282FB882780F991E0892701C01D
:100F200080E00E94631524C09091E00180915A02F4
:100F3000892B0E941F13C82F0E94CC1410925A02B2
:100F40008EE591E00E94D623DC2FD27219F086E55F
:100F500091E002C08CE491E00E94D6238AE291E005
:100F60000E94D623DD2321F0C17111F00E94AF1F32
:100F7000D70115968C911597CD91DC91882361F05E
:100F8000CE010E94061A182F682FCE010E94471C1E
:100F900007C0D701CD91DC91CE010E94141C182FFF
:100FA000BE01812F0E946E130E948B13EC01C82E8C
:100FB000F7011581068102950F708091D401877029
:100FC00001F11123F1F08D2F807F803469F080E2F0
:100FD0008C0F8830B0F08D2F807E803229F4F1E0C4
:100FE000FC1778F4002369F080911A0282FF09C08F
:100FF00082E00E944C158091D4018770DD24D39447
:101000008111D12CBD2EB2948FE0B8228B2D90E0AF
:101010008C30910508F014C2FC01E158FF4F0C948C
:1010200021278D2F807FDF70882311F0D295D07F0C
:101030001123B9F0DD2309F4F0C180E28C0F883070
:1010400010F0C11006C090915A02D92BD0935A02C9
:1010500005C09091D501D92BD093D5010E94F314EE
:10106000DCC18C2F0E94141EDD2309F4E9C1C05E8F
:10107000C83080F1CC2071F1D0959091D501D92361
:10108000D093D5012AC08D2F807FDF70803211F080
:10109000D295D07FCC2029F021E0C21609F461C09E
:1010A0006AC080911A0282FD1BC0112369F0DD2302
:1010B00039F090915A02D92BD0935A020E94F3141E
:1010C00080E00E94471EBCC180E00E94141EDD2308
:1010D00009F4B6C18D2F0E94EC140E94F314B0C124
:1010E000112359F1002309F44AC0013091F4809191
:1010F000E0018D23D81709F4A3C10E944D109093ED
:10110000DF018093DE019091E001D92BD093E001C3
:1011100097C1023009F094C18D2F0E941E1D8D2FA2
:101120000E94D7149091D1018D2F8923D81709F4EB
:1011300087C1D92BD093D10183C1002341F0013065
:1011400009F07EC180915A028D2309F479C18D2F57
:101150000E94171D8D2F0E94D7148D2F0E9491156C
:101160006FC1112321F0033008F06AC108C00230BA
:1011700008F066C115C0112331F001114EC18D2F49
:101180000E941E1D5DC1002359F0C93309F055C1ED
:101190008FEF97EEA3E081509040A040E1F74BC164
:1011A0008D2F0E94171D4CC18D2F869586958370BB
:1011B00019F0813059F044C1112319F0CE01937018
:1011C00002C080E090E00E94982140C1112319F0F4
:1011D000CE01937002C080E090E00E94732136C17E
:1011E000612F8C2F0E94281D31C18D2F837009F033
:1011F00041C0111129C12C2F229526952770220F4D
:10120000220F8C2F8F7090E0022E02C0880F991F42
:101210000A94E2F7C4FF0BC04FE050E002C0440F55
:10122000551F2A95E2F79A012095309502C020E0DB
:1012300030E0D695D695D370D23099F068F44091CD
:10124000150250911602D13029F0822B932B842362
:10125000952304C0842B952B822B932B0E94D61CA4
:10126000F3C0822B932B2091150230911602822716
:101270009327F4CF112319F08D2F817001C086952B
:10128000882309F4E1C02C2F229526952770220F80
:10129000220F8C2F8F7090E0022E02C0880F991FB2
:1012A0000A94E2F7C4FF0BC04FE050E002C0440FC5
:1012B000551F2A95E2F79A012095309502C020E04B
:1012C00030E0D695D695D370D23079F0B8F440910D
:1012D000170250911802D13029F0822B932B8423CE
:1012E00095230EC0842B952B09C0822B932B209124
:1012F0001702309118028227932702C0822B932B6A
:101300000E947B1CA1C0DF70112339F08D2F0E9439
:10131000C61C8C2F0E941E1D97C08C2F0E94171D6B
:101320008D2F0E94B41C90C08C2FB2EFCB1699F178
:10133000BC1538F0E0EFCE1659F0F1EFCF1621F1E1
:1013400067C023EFC21671F194EFC916C9F060C0EF
:10135000112391F0023008F073C0DF7181E090E05A
:1013600002C0880F991FDA95E2F720911702309199
:1013700018028227932723C0033008F061C0EDCF05
:1013800080911A0282FD1EC0112339F08D2F8F71BA
:101390000E94C61C55C01123C9F38D2F8F710E9466
:1013A000B41C4EC0112349F0DF7181E090E002C00F
:1013B000880F991FDA95E2F702C080E090E00E9462
:1013C0007B1C3EC01123B1F08091D4018770843022
:1013D00039F40E9445158D2F8F710E94B41C53C0A3
:1013E000023008F050C0DF718D2F0E94C61C63E0F0
:1013F0008D2F07C0023040F00E94451564E08D2F0C
:101400008F710E947A153FC081E00E944C153BC04D
:10141000112329F0002309F4B9CF8C2F52CE0023D9
:1014200009F4BBCF893349F4AFEFB7EEE3E0A15045
:10143000B040E040E1F700C000008C2F0E94141E75
:1014400088EF8B0D843010F40E94BD21DD20B1F0B7
:101450008091D40180FD12C0D70115961C9286950B
:10146000869586950E94C61CC7010E9452038091F2
:10147000D4018695869586950E94B41C60E0C701CC
:101480000E94B71E08C0D12CDFCFC835BCE7DB07F0
:1014900009F0A8CB90CBCDB7DEB7E9E00C94A92634
:1014A0002091E4003091E50095E64091EC00842F16
:1014B000817040FF23C08091E80080FD1DC08091B5
:1014C0008601882399F0853099F08091EB0085FDA5
:1014D00011C04091E4005091E5002417350729F32D
:1014E000915011F09A01E1CF84E0089582E00895CF
:1014F00083E0089581E0089580E008954091E80038
:1015000042FFDDCF08958091880187FF11C080914F
:10151000E80082FD05C0809186018111F8CF11C0DD
:101520008091E8008B770BC080918601882349F079
:101530008091E80080FFF8CF8091E8008E7780935B
:10154000E8000895982F973068F59093E900981770
:1015500039F07091EC002091ED005091F00003C043
:10156000242F762F50E021FD02C09F5FECCF3091F9
:10157000EB003E7F3093EB003091ED003D7F3093E8
:10158000ED003091EB0031603093EB007093EC0094
:101590002093ED005093F0002091EE0027FDE5CF61
:1015A00080E008958F708093E90081E00895209194
:1015B0008E0130918F012617370748F061157105AC
:1015C00039F42091E8002E772093E80001C0B9019A
:1015D000FC0120E06115710579F180918601882375
:1015E000F1F18530F1F18091E80083FD3CC08091FC
:1015F000E80082FD2EC08091E80080FFEBCF2091B3
:10160000F3008091F20090E0922B6115710551F08A
:101610008830910538F421912093F10061507109CF
:101620000196F3CF21E0089709F020E08091E800CF
:101630008E778093E800CECF2111CFCF0AC0809162
:101640008601882361F0853061F08091E80083FD98
:101650000AC08091E80082FFF2CF80E0089582E026
:10166000089583E0089581E00895089580917B01B5
:1016700008950F931F93CF93DF938B01EA0190910D
:101680008601943079F58F708093E9008FEF909107
:10169000E800815095FD06C095ED9A95F1F70000A0
:1016A0008111F5CF8091E80085FF1CC00E94500A8F
:1016B000882361F08091E8008E778093E80012C063
:1016C000F80181918F018093F1002197209791F388
:1016D0008091E80085FDF4CF8091E8008E778093BB
:1016E000E800E4CFDF91CF911F910F91089543E07F
:1016F00050E0BC0182E00E94390B089546E050E0C2
:10170000BC0182E00E94390B0895CF93DF93EC0176
:1017100048E050E0BC0181E00E94390B88E0FE0106
:10172000ACE7B1E001900D928A95E1F7DF91CF919E
:101730000895AAE2B0E0EFE9FBE00C949326E8E814
:10174000F1E080E991E02091F10021938E179F074D
:10175000D1F780918901833009F461C030F4813080
:1017600071F0823009F49BC0B2C08A3009F487C09E
:101770008B3009F46CC0893009F0A9C020C0809179
:101780008801813A09F0A3C08091E800877F8093A7
:10179000E80080918C0190918D01892B21F468E003
:1017A0008CE791E003C060E080E090E070E00E9490
:1017B000D70A8091E8008B778093E80088C08091F9
:1017C0008801813209F083C080918C0190918D0154
:1017D000029708F07CC08091E800877F8093E80042
:1017E0008091E80082FD05C0809186018111F8CFCB
:1017F0006EC02091F3008091F20090E0922B02974E
:1018000031F48091F100813011F0863021F4809123
:10181000F10080937B018091E8008B7754C0809128
:101820008801813A09F053C080918C0190918D011B
:10183000892B09F04CC08091E800877F8093E800F5
:101840008091E80080FFFCCF8091010137C080913A
:1018500088018132E1F580918C0190918D01892B75
:10186000B1F58091E800877F8093E8000E94830AA9
:1018700080918A01809301010E94DB1C28C0809125
:101880008801813221F58091E800877F8093E8000C
:101890000E94830A80918B0180937A0118C0809105
:1018A0008801813AA1F48091E800877F8093E80065
:1018B0008091E80080FFFCCF80917A018093F10055
:1018C0008091E8008E778093E8000E94830A8091DF
:1018D000E80083FFCEC18091880190918901492F52
:1018E00050E04A30510508F0C4C1FA01E557FF4FF6
:1018F0000C942127803821F0823809F0BAC108C041
:101900008091840190918501992389F082600FC0B4
:1019100080918C018F70873008F0ABC18093E90013
:101920008091EB0085FB882780F91092E900909167
:10193000E800977F9093E8008093F1001092F10007
:1019400065C1282F2D7F09F094C1882319F08230BA
:1019500061F08FC180918A01813009F08AC1933092
:1019600009F080E0809385012EC080918A01811169
:101970002AC080918C018F702FEF280F263008F03D
:1019800078C18093E9002091EB0020FF1CC09330C8
:1019900021F48091EB00806214C09091EB00906183
:1019A0009093EB0021E030E0A90102C0440F551FE5
:1019B0008A95E2F74093EA001092EA008091EB00EA
:1019C00088608093EB001092E9008091E800877FA7
:1019D00020C181114EC110918A011F778091E300CF
:1019E0008078812B8093E3008091E800877F80934B
:1019F000E8000E94830A8091E80080FFFCCF80917C
:101A0000E30080688093E300111102C082E001C00E
:101A100083E0809386012DC18058823008F029C16F
:101A200080918A0190918B018C3D53E0950779F567
:101A300083E08A838AE289834FB7F894DE011396A4
:101A400020E03EE051E2E32FF0E050935700E491B4
:101A500020FF03C0E295EF703F5FEF708E2F90E0A4
:101A6000EA3010F0C79601C0C0968D939D932F5F0A
:101A7000243149F74FBF8091E800877F8093E800C9
:101A80006AE270E0CE0101960E94D70AAEC0409192
:101A90008C0150918D01292F332723303105A9F076
:101AA00068F42130310509F4F3C02230310509F022
:101AB000E0C08BE390E0E1E2F2E044C02132310586
:101AC00021F12232310571F1D4C09927813091057D
:101AD000A1F058F0029709F0CCC0EEE6F2E0E491F4
:101AE0008E2F90E0EEE6F2E02AC0E0E9F2E0E49129
:101AF0008E2F90E0E0E9F2E022C0EEE7F2E0E49120
:101B00008E2F90E0EEE7F2E01AC04115510509F47E
:101B1000C4C04130510509F0ACC089E090E0ECE46C
:101B2000F2E010C04115510509F4BCC04130510527
:101B300009F09FC08BE790E0E2E6F1E003C0009778
:101B400009F497C02091E800277F2093E8002091B6
:101B50008E0130918F018217930708F49C0140E0B9
:101B60002115310589F180918601882309F43DC052
:101B70008530D9F18091E80083FD37C08091E8007D
:101B800082FD2FC08091E80080FFEACF4091F300F2
:101B90008091F20090E0942B2115310559F08830A6
:101BA000910540F444914093F10031962150310960
:101BB0000196F2CF41E0089709F040E08091E800FB
:101BC0008E778093E800CCCF4111CDCF0AC08091B1
:101BD0008601882351F0853041F08091E80083FD33
:101BE00004C08091E80082FFF2CF8091E8008B77FB
:101BF0008093E8003EC08038E1F58091E800877F5F
:101C00008093E800809187018093F1008091E80043
:101C10008E778093E8000E94830A2BC0811129C02F
:101C200080918A0190918B019927029714F58091F8
:101C3000E800877F8093E80010918A011093870164
:101C40000E94830A111106C08091E30087FD02C043
:101C500081E001C084E08093860142E061EC81E094
:101C60000E94A20A42E261EC82E00E94A20A8091F4
:101C700086018091E80083FF1AC08091E800877F89
:101C80008093E8008091EB0080628093EB000FC0AE
:101C900082E190E0ECE5F2E055CF89E090E0E3E30B
:101CA000F2E050CF84E490E0EDEDF1E04BCFAA9666
:101CB000E3E00C94AF261F920F920FB60F921124FF
:101CC0002F933F934F935F936F937F938F939F9344
:101CD000AF93BF93CF93DF93EF93FF93C091E9004E
:101CE000CF708091EC00D82FD17080FDD0E8109299
:101CF000E9008091F000877F8093F00078940E9443
:101D0000990B1092E9008091F00088608093F000B8
:101D1000CD2BCF70C093E900FF91EF91DF91CF9170
:101D2000BF91AF919F918F917F916F915F914F91F3
:101D30003F912F910F900FBE0F901F901895E8EDD7
:101D4000F0E080818E7F80831092E2001092DA00B2
:101D50001092E100A0EEB0E08C9181608C938081C4
:101D60008F77808319BCA7EDB0E08C918E7F8C9328
:101D700080818F7E8083109279010895A0E0B0E089
:101D8000E4ECFEE00C948E26C8EDD0E088818F7ED6
:101D90008883E7EDF0E080818160808384E082BF0A
:101DA00081E08093790188818E7F888302EE10E044
:101DB000F80110821092DA0081EEC82ED12CF601C3
:101DC000108288818F778883888180688883888162
:101DD0008F7D888319BC1092860110928701109222
:101DE00085011092840190EEE92EF12CF70180819B
:101DF0008B7F808388818160888342E060E080E01F
:101E00000E94A20AF60180818E7F8083F801808182
:101E100081608083808188608083F70180818E7FEC
:101E20008083888180618883CDB7DEB7E8E00C9439
:101E3000AA261F920F920FB60F9211242F933F9351
:101E40004F935F936F937F938F939F93AF93BF93C2
:101E5000EF93FF938091E10082FF09C08091E2003F
:101E600082FF05C08091E1008B7F8093E10080912B
:101E7000DA0080FF2AC08091D80080FF26C08091C0
:101E8000DA008E7F8093DA008091D90080FF18C03D
:101E900080E189BD82E189BD09B400FEFDCF81E00A
:101EA000809386018091790181110FC00E949F0E5D
:101EB0000E94BE0E8091E20084608093E20005C023
:101EC00019BC10928601109279018091E10080FF87
:101ED00017C08091E20080FF13C08091E2008E7FE6
:101EE0008093E2008091E20080618093E200809123
:101EF000D80080628093D80019BC85E08093860169
:101F00008091E10084FF30C08091E20084FF2CC00A
:101F100080E189BD82E189BD09B400FEFDCF8091D9
:101F2000D8008F7D8093D8008091E1008F7E8093D0
:101F3000E1008091E2008F7E8093E2008091E200D8
:101F400081608093E20080918701882311F084E012
:101F500007C08091E30087FD02C081E001C083E0FB
:101F600080938601809186018091E10083FF27C0E4
:101F70008091E20083FF23C08091E100877F8093FE
:101F8000E10082E080938601109287018091E10058
:101F90008E7F8093E1008091E2008E7F8093E2004B
:101FA0008091E20080618093E20042E060E080E0A6
:101FB0000E94A20A8091F00088608093F000FF9157
:101FC000EF91BF91AF919F918F917F916F915F91B1
:101FD0004F913F912F910F900FBE0F901F9018952A
:101FE00078941F920F920FB60F9211248F939F93A4
:101FF000AF93BF938091750190917601A091770185
:10200000B09178010196A11DB11D80937501909347
:102010007601A0937701B0937801BF91AF919F9122
:102020008F910F900FBE0F901F901895CF92DF9257
:10203000EF92FF922FB7F894C0907501D09076017F
:10204000E0907701F09078012FBFA7019601261B41
:10205000370B480B590BCA01B901FF90EF90DF9085
:10206000CF9008959C014FB7F8948091750190919D
:102070007601A0917701B09178014FBF821B930B3D
:1020800008952FB7F8946091750170917601809151
:102090007701909178012FBF08952FB7F894809120
:1020A000750190917601A0917701B09178012FBFD1
:1020B000089580E008958238910569F1B0F4813384
:1020C000910509F475C048F48932910509F467C097
:1020D0008A32910509F471C008958533910509F498
:1020E00059C089339105B9F00895833E910589F16E
:1020F00038F4803E9105D1F0823E910529F1089592
:10210000863E9105C9F1873E9105D9F1843E91053E
:1021100009F06CC027C02091190220FD57C021FD95
:1021200055C020911A0223FD5BC0089580911902C9
:1021300080FD48C080911A0280FF48C0809119023A
:1021400084FD46C083EE51C08091190282FF3CC0DD
:10215000F5CF8091190282FD37C080911A0280FD6F
:1021600035C0ECCF80911A0281FF36C080911902F0
:1021700084FD2EC087EE39C08091190283FF2AC0EA
:10218000F5CF8091190283FD25C080911A0281FD4F
:1021900023C0ECCF8091190285FD22C01FC0809121
:1021A000190285FD1BC080911A0283FF19C00AC065
:1021B0008091190286FD16C017C08091190286FD14
:1021C00013C010C089E311C082EE0FC080EE0DC0B5
:1021D00080E00BC086EE09C084EE07C085E305C031
:1021E00089E203C08AE201C081E390E00895EF92A2
:1021F000FF921F93CF93DF9300D000D000D0CDB7D4
:10220000DEB77B0180E090E00E940926882309F474
:1022100056C04091050150E04115510511F041E0D3
:1022200050E060910601709107016A507E4FCE0127
:1022300006960E9448276091F2017091F301809107
:10224000F4019091F5010E94161064367105810524
:10225000910538F487EF91E00E94B1249E8189179F
:1022600081F181E090E00E940926182F882391F0E7
:1022700040910D0150E04630510510F045E050E02E
:1022800060910E0170910F016A507E4FCE01019650
:102290000E94482787EF91E00E94B12491E02E81AF
:1022A000281390E0192311F10E9441106093F2016C
:1022B0007093F3018093F4019093F5010CC010E04A
:1022C00001C011E085E0E7EFF1E0DE011196019039
:1022D0000D928A95E1F7112349F085E0FE013196D0
:1022E000ADEEB1E001900D928A95E1F785E0EDEE5B
:1022F000F1E0D70101900D928A95E1F7812F2696A2
:102300000FB6F894DEBF0FBECDBFDF91CF911F9106
:10231000FF90EF900895F894E82FE295EF70F0E0C9
:1023200031A1282F2F7081E090E001C0880F2A95FD
:10233000EAF7982F9095932391A392A1892B82A3DA
:1023400078940895AFE0B0E0E8EAF1E10C948726D4
:10235000AE014F5F5F4F7A018AE0DA011D928A95E4
:10236000E9F700E611E06A0185E6682E81E0782E43
:10237000AA24A394B12C2BE6822E21E0922EF80100
:1023800080818F3F09F440C0F894E82FE295EF7008
:10239000F0E021A18F70A50102C0440F551F8A955E
:1023A000E2F7CA01922F982B91A392A180958923DD
:1023B00082A3789400C0E5E6F1E0512C31E0219150
:1023C0002F3F89F0A22FA295AF70B0E090968C912C
:1023D00090E02F7002C0959587952A95E2F780FDD1
:1023E00002C0832F01C080E0582A330F8E169F064B
:1023F00031F7D8018C918F3F11F00E948B11B0EA18
:10240000BA95F1F7F60150820F5F1F4FFFEFCF1A19
:10241000DF0A6016710609F0B2CF4AE050E0B7015A
:1024200089E092E00E943B27892B99F08AE0F7012E
:10243000A9E0B2E001900D928A95E1F781E08093E6
:10244000E5010E944D109093E4018093E301F12C8B
:1024500027C08091E5018823D1F300911402809177
:10246000E3019091E4010E943210059780F310E09F
:10247000055E1D4F45E050E069E072E0C8010E9432
:102480003B27892B09F4BFC085E0E9E0F2E0D801E1
:1024900001900D928A95E1F7FF24F3941092E501E3
:1024A00080918402E0911402882309F458C06E01DF
:1024B0002BE0C20ED11C85E0D6011D928A95E9F76A
:1024C0000E2F10E0055E1D4F809104028A3048F403
:1024D00047EF50E1B601C8010E94D119882399F055
:1024E0000AC08091E6019091E7010E943210843F7A
:1024F000914070F71AC04EE156E1B601C8010E9442
:10250000D11981116DC0809104028F3F19F08F5F46
:1025100080930402809104028A3008F463C00E9410
:102520004D109093E7018093E6018091EC018823A0
:1025300009F450C085E0F60111928A95E9F71092EE
:10254000EC01A0911302B0E0A55EBD4F85E0FE0155
:102550003B9601900D928A95E1F781E03CC0F0E056
:10256000E55EFD4F85E0A7EFB1E001900D928A9501
:10257000E1F787EF91E00E94B1248093F60180900B
:10258000FC019090FD01A090FE01B090FF018091B0
:10259000E8019091E901A091EA01B091EB01881660
:1025A0009906AA06BB06B1F08092E8019092E90173
:1025B000A092EA01B092EB010E944110861A970A9C
:1025C000A80AB90A8092050290920602A092070218
:1025D000B092080280E08F292F96EFE00C94A3269A
:1025E000109204028091130290E045E050E0B601A1
:1025F000855E9D4F0E943B2721E02093EC01892BB3
:1026000009F09FCFE7CFF12C49CF0F931F93809113
:102610008402882319F00E9441100EC00E944110CC
:1026200000910502109106022091070230910802E4
:10263000600F711F821F931F1F910F91089590913A
:10264000190292FF10C041E0282F2471243009F0B4
:1026500040E031E0282F2871283009F030E043179E
:1026600011F02CE0822793FF10C041E0282F247145
:10267000243109F040E031E0282F2871283109F099
:1026800030E0431711F02CE0822730911A0230FF1E
:1026900010C051E0282F2171213009F050E041E0B5
:1026A000282F2871283009F040E0541711F029E054
:1026B000822731FF10C041E0282F2171213109F01C
:1026C00040E031E0282F2871283109F030E043172D
:1026D00011F029E0822794FD877E08957A30B0F4C6
:1026E0006630A0F48530A0F49CE3899FF0011124AA
:1026F00086E0789FE00DF11D1124E60FF11DEE0F2D
:10270000FF1FEC56FD4F85919491089580E001C024
:1027100081E090E008951F93CF93DF930E945B10B8
:10272000EC01C11580E5D807E8F5C11590E4D9079B
:1027300008F0A8C0C03ED10530F5CD3CD10508F069
:1027400094C0C83AD10578F4C53AD10508F083C0E1
:10275000C130D10509F47CC008F4F2C0C430D10501
:1027600008F0F1C0EDC0C33CD10508F0E9C0C85A7B
:10277000D0E0CC0FDD1FC85DDE4F0990D881C02DA1
:10278000CE019464E1C0C11580E2D80708F0CBC047
:10279000C11591E0D90708F06BC0C83ED10508F417
:1027A000D2C0CEC0C03682E5D80728F5C03492E545
:1027B000D90708F079C0C03282E5D80708F06CC0AC
:1027C000C11592E5D90708F481C04C2F469546956E
:1027D00080E2489FA0011124C37021E030E0C901CC
:1027E00002C0880F991FCA95E2F7EA01C82BD92BBE
:1027F000CE019D68A9C0C03A82E5D807B8F48C2FF5
:102800008F71C03892E5D90708F07BC08695869510
:1028100090E2899F90011124C37081E090E002C092
:10282000880F991FCA95E2F79A6868C0C03C82E594
:10283000D80708F46DC0C03E92E5D90708F080C003
:10284000CF71DD27DC2FCC27CE01806F906A7CC052
:1028500081E090E079C0C55AD0E0CB5DDE4F888141
:10286000C82FD0E0CE0190646FC0CE0190656CC0DF
:102870008D2F0E941F13182FCE0199270E945B10E5
:102880001F715CC0CE0199270E945B10CC27DF70BE
:10289000D06A8C2B9D2B58C0CF71D0E0DC2FCC2779
:1028A000CE01816F906A50C08C2F8F71869586956E
:1028B00090E2899F90011124C37081E090E002C0F2
:1028C000880F991FCA95E2F79C6818C08C2F8F71EA
:1028D0000E941F1395E0D695C7959A95E1F7CF70A2
:1028E000D0E0DC2FCC27282F30E084FF05C084E027
:1028F000220F331F8A95E1F7D069CE01822B932BEB
:1029000023C090E0D82FCC27CE01846F906A1CC0E2
:102910008C2F8F710E941F138F7190E0D82FCC27BE
:10292000CE01906211C08D2F8F710E941F13182F3E
:10293000CE0199270E945B101F719062912B04C0F9
:1029400080E090E001C0CE01DF91CF911F9108950A
:10295000A6E0B0E0EEEAF4E10C9492260E944D105D
:102960008C018091E1019091E2010817190781F033
:1029700019821A820E944D10682F49815A81792F3D
:1029800080E090E00E94E21E1093E2010093E101DA
:102990002696E4E00C94AE268091E001882331F085
:1029A0001092E0011092DF011092DE0108959091E3
:1029B000E001292F282379F0809589238093E00175
:1029C000882319F00E944D1002C080E090E090939F
:1029D000DF018093DE010895809590915A0289234A
:1029E00080935A020895CF93C0915A028091D501E5
:1029F000C82B8091E0018823F1F00E944D102091B6
:102A0000DE013091DF01821B930B843C994010F072
:102A10000E94CC148091E001C82BE4E5F2E097E03D
:102A200080E0915029F021912223D9F38F5FF9CFD3
:102A300081110E94CC1480916A028095C8238091F4
:102A40006B02C82BC093520248E050E066ED71E083
:102A500082E592E00E943B27892BA9F088E0E2E51D
:102A6000F2E0A6EDB1E001900D928A95E1F7E091D8
:102A70008802F0918902309731F00280F381E02DD5
:102A800082E592E00995CF9108951092D4011092B9
:102A9000D3011092D20108959091D4018095892399
:102AA0008093D401282F277069F4981759F09091DA
:102AB0001A0292FF07C08695869586950E94B41CDF
:102AC0000E944515089590911A0292FB222720F941
:102AD000281779F080FB92F990931A0260911902FD
:102AE00070911A0284E090E00E94F72682E00E9432
:102AF0004C15089590911A0292FF10C098E0899F9A
:102B000090011124262B2093D4010E94C61C0E9400
:102B10004D109093D3018093D20108950E94C61C5A
:102B200008959091D101292F282321F08095982391
:102B30009093D10108952091D0019091970157E091
:102B40002917A9F030E0529FF001539FF00D112496
:102B5000E856FE4F7181761306C07081781303C06A
:102B60007581741306C02F5F3F4F2770E9CF80E057
:102B7000089581E008958091D0019091970189177F
:102B800019F08F5F8770FBCF0895CF93DF9380910B
:102B9000960182958F7009F04EC08091950188232F
:102BA00009F449C08091D001409197015091910161
:102BB00060919001C0919201D091930177E08417C8
:102BC000D1F190E0789FF001799FF00D1124DF01A1
:102BD000A856BE4F14962C911497222349F11196B2
:102BE0002C911197251324C02C91261321C01596E2
:102BF0002C91159721111CC012962D913C91139781
:102C00002C1B3D0B283C310598F4809196018F7068
:102C1000806180939601E256FE4F80818F708061C3
:102C2000808380E991E00E9452030E94BB1503C09B
:102C300001968770C4CFDF91CF910895A4E0B0E0F2
:102C4000E4E2F6E10C949426609100027091010296
:102C500080910202909103020E9416106436710561
:102C60008105910570F10E940513DC01CB010296EC
:102C7000A11DB11D89839A83AB83BC83809113010D
:102C8000909114018A509E4F4091120150E04530BE
:102C9000510510F044E050E0BE016F5F7F4F0E948D
:102CA000482782E090E00E940926882359F00E947C
:102CB000411060930002709301028093020290938E
:102CC000030281E02496E2E00C94B026AEE0B0E08E
:102CD000ECE6F6E10C94842685B7806885BF85B75D
:102CE000806885BF84B7877F84BF0FB6F894A895A6
:102CF00080916000886180936000109260000FBE38
:102D000090E080E80FB6F8948093610090936100A2
:102D10000FBE89E590E190936D0180936C010E9454
:102D20009F0E0E94BE0E8091E20084608093E200BC
:102D30007894809186018823A1F01091E9001F709A
:102D40009091EC00892F817090FD80E8182B1092F3
:102D5000E9008091E80083FD0E94990B1F70109399
:102D6000E90082E084BD93E095BD9AEF97BD809322
:102D70006E00109205021092060210920702109245
:102D800008028091D80080618093D8002AE12A95BA
:102D9000F1F700C08091D900182F117080FD04C098
:102DA0000E949F0E10928601109384021093850258
:102DB00010931A0111110E941E2580911A01809111
:102DC0001A01811102C095E001C090E090931402B5
:102DD00085E0891B8093130200E611E075E6E72E7B
:102DE00071E0F72ED8018D918D018F3F11F00E9477
:102DF0008B11E016F106B1F705E611E06BE6E62E61
:102E000061E0F62EF80181918F018F3F11F00E9451
:102E10008B11E016F106B1F78AE0EBE1F2E0DF0199
:102E2000282F1D922A95E9F7E9E0F2E0DF011D92D3
:102E30008A95E9F780E090E00E94C326863E9E4F87
:102E400009F466C066EE7EEF80E090E00E94F7260F
:102E500060E082E090E00E94D92681E090E09093CB
:102E600016028093150261E083E090E00E94D9266B
:102E700060E074E184E090E00E94F72660E086E084
:102E800090E00E94D92660E087E090E00E94D92679
:102E900040E050E0BA0188E090E00E94EB2660E05C
:102EA00084E290E00E94D92660E087E190E00E94F1
:102EB000D92660E08CE090E00E94D92660E08DE0A9
:102EC00090E00E94D92619821A821B821C821D82E0
:102ED0001E821F82188648E050E068E170E0CE0153
:102EE00001960E94C92640E050E0BA0180E290E0DD
:102EF0000E94EB2640E050E0BA018FE090E00E9493
:102F0000EB2640E050E0BA0183E190E00E94EB261E
:102F100082E090E00E94BB268093250284E090E04E
:102F20000E94C32690931A028093190283E090E0D6
:102F30000E94BB2690E00E94D61C809184028111E1
:102F400002C00E9421258BE191E090938902809339
:102F5000880238E1A32EB12C40E4342E50E3852EB4
:102F600052E0952E11E080918601853009F041C034
:102F700020E1F22E02E180918601853009F035C012
:102F800080918601843009F110928C020FB6F8947A
:102F9000A895A09260000FBE3092600083B7817F39
:102FA000846083BF83B7816083BF7894889583B73B
:102FB0008E7F83BF0FB6F894A895809160008861DA
:102FC00080936000109260000FBE8091850188237D
:102FD00091F20E94A211EBE1F2E081918111C1C155
:102FE00022E0E532F207C9F7C6CF0E94DB1C0E943F
:102FF000BD210E94A21186E2E82E82E0F82E9BE11C
:10300000C92E92E0D92ED601F70191918D91892791
:103010008E169F0619F08823C1F305C0811103C0E5
:103020000E94A81436C02090840200E0D6014D9082
:103030006D01F7015080542421F1712C66246394B2
:10304000852D8621B9F02220A9F079860A870E9471
:103050004D109C878B87F1E0FD8791E0842D8621C0
:1030600009F490E09E8749855A856B857C858D851E
:103070000E94E21E7394660C26E07212E1CFD70123
:103080004C920F5FBFEFEB1AFB0A0A3079F60E94F1
:10309000051380918402882309F454C080916D0245
:1030A00090916E02892B89F16091620270916302A6
:1030B00080916402909165020E941610C0905E0299
:1030C000D0905F02E0906002F09061026C157D0587
:1030D0008E059F05D0F080916D0290916E020E9446
:1030E000F81F10926E0210926D02109262021092FE
:1030F0006302109264021092650210925E021092B6
:103100005F02109260021092610280913002882367
:1031100041F00E94D122882321F0109230020E94B7
:10312000472080915D02882369F00E944D10209114
:103130005B0230915C02821B930B8F3F9F4710F420
:103140000E94B82386E0EBE7F2E0DE0111960190E1
:103150000D928A95E1F7C0907C02F0907D0200917B
:103160007E02E0907F02D090800210927D02109249
:103170007E0210927F0210928002F11003C00023A1
:1031800009F44BC08091790290917A020E9432102A
:103190009C0190917402992309F4F9C025313105FD
:1031A000E0F19F3F19F09F5F90937402FF2061F060
:1031B0000E949E221F1414F09FEF01C091E0899F8E
:1031C000802D112480937D02002361F00E949E22B5
:1031D000101614F491E001C09FEF899F802D1124F7
:1031E00080937E0280917D028823B9F070907E02E8
:1031F000772099F00E94BE22882319F080937D02E7
:1032000002C010937D02872D0E94BE22882319F0F0
:1032100080937E0202C010937E02E11003C0DD2085
:1032200009F44BC080917702909178020E9432108D
:103230009C0190917502992309F4AEC021353105A6
:10324000E0F19F3F19F09F5F90937502EE2061F0CF
:103250000E947C221E1414F09FEF01C091E0899F10
:10326000802D112480937F02DD2061F00E947C225A
:103270001D1414F491E001C09FEF899F802D11244B
:103280008093800280917F028823B9F07090800241
:10329000772099F00E94BE22882319F080937F0244
:1032A00002C010937F02872D0E94BE22882319F04E
:1032B0008093800202C01093800280917C02C81229
:1032C0001AC080917D02882311F0F81214C08091F9
:1032D0007E02882311F008130EC08091800288239B
:1032E00011F0D81208C090917F02992331F081E04B
:1032F000E91204C002C081E001C080E080FD15C079
:1033000080917D0281110FC080917E0281110BC0DE
:1033100080917F02811107C081E09091800291111C
:1033200003C080E001C081E080FD0E945222CA8279
:10333000FB820C83ED82DE8286E0FE013196ABE7F4
:10334000B2E001900D928A95E1F70E94BD21909123
:103350003102891709F407CE809331020E9441108F
:1033600001CEF9BC09BD09B400FEFDCF8091D800A3
:103370008F7D8093D8008091E00082608093E00090
:103380008091E00081FDFCCF0E94DB1CF4CD2B304E
:10339000310508F008CF41CF2B30310508F053CF6D
:1033A0008CCFA0E0B0E0E7EDF9E10C948C267C0135
:1033B0005B016A01809104028A3018F001E010E09C
:1033C00002C00AE010E0C1E0D0E0B501C701F6019B
:1033D0000995811115C021960C171D0794F0CC9FFB
:1033E0009001CD9F300D300D112480E090E045E339
:1033F0004A95F1F70000019682179307C1F7E5CFD0
:1034000081E0CDB7DEB7EAE00C94A826A0E0B0E0FA
:10341000ECE0FAE10C948D267C01009117021091EA
:1034200018028091150290911602082B192BCFE0FB
:10343000D0E0CC24C394D12CC6010C2E02C0880F3E
:10344000991F0A94E2F780239123892B21F4219775
:1034500098F7B12C09C0BC2EB7018C2F0E946E13B7
:103460000E948B13019799F38B2DCDB7DEB7E9E05E
:103470000C94A926CF93DF93EC010E94061ABE019B
:103480000E946E130E948B13DF91CF910895FC016F
:1034900024812223D9F0808191810E943A1A929549
:1034A0009F70963079F010F4925001C09A5092308B
:1034B00068F4803F69F018F4883E40F409C0843F06
:1034C00029F406C0883E20F0813F11F080E0089585
:1034D00081E00895A4E1B0E0E0E7FAE10C948726EA
:1034E0008C0186E0F801DE011F9601900D928A950D
:1034F000E1F7D80114967C9014971596EC9080E92A
:10350000882E81E0982E80919401811122C077202D
:1035100009F453C0EE2009F44DC0C8010E94471AB7
:10352000F82E882309F446C087E0F801A0E9B1E04D
:1035300001900D928A95E1F780919401813031F4E8
:1035400080919001909191010E943A1A0E94C515B4
:1035500066C1F80150806180C280D38060E080E95C
:1035600091E00E94B71E5C01F0909501809192015C
:1035700090919301FF2009F40FC19601281B390B8C
:10358000283C310508F0BFC07720B9F08091960142
:10359000382F307F20919101D80111969C9111977D
:1035A000332371F0291709F479C0C8010E94471A22
:1035B000811182C0C8010E945203FF24F3942FC1DD
:1035C000291314C0209190019C9129130FC0E11080
:1035D0000DC08F7080618093960180E991E00E9418
:1035E000520380919601F801868318C1E11050C002
:1035F00040E0662D852D0E949B15E82E8823D9F08A
:10360000F8E2AF16F2E2BF0609F4FDC038F439E281
:10361000A31631E2B30609F001C1F5C08AE2A8168B
:1036200081E4B80609F4EFC0ABE2AA16A4E4BA0636
:1036300009F0F4C0E8C05F86688A8F8598890E9487
:103640003A1A292F22952F70243020F49F702230AF
:1036500028F009C02A50223080F014C0992349F084
:10366000811107C013C0992321F0F8019681907F42
:1036700069F0805E883030F409C0803F38F0815FA7
:10368000833020F0C8010E945203EF2CFE2CC7C0EB
:1036900080919601816080939601C0C02091900135
:1036A000D8019C91291381CFE1107FCF16968C937E
:1036B000C8010E9452038AC0EE2009F47BCF2091FA
:1036C0009601822F82958F7090E002978CF0809106
:1036D00090019091910199878887DB86CA868091B5
:1036E00094018C871D862E87CE0108960E94520376
:1036F00087E0F801A0E9B1E001900D928A95E1F729
:103700000E94C5155ACF80919601982F907F51F451
:1037100080E991E00E94520387E0F40111928A95BA
:10372000E9F77CC0772009F448CF20919101D801B6
:1037300011969C91119729130DC0209190019C9195
:10374000291308C0E11006C016968C93C8010E9488
:10375000520353C0C8010E94471A882309F42ACF94
:10376000EE2009F427CF20919601822F82958F7049
:1037700090E002970CF4BCCF809190019091910160
:103780009A838983DC82CB82809194018D831E820F
:103790002F83CE010196AACFC81AD90AF8ECCF160A
:1037A000D10458F5772009F408CFFE2CEE2009F457
:1037B00001CF90919101D80111968C911197981396
:1037C0000EC0909190018C91981309C087E0F80188
:1037D000A0E9B1E001900D928A95E1F720C0C801FF
:1037E0000E94471A811184CF809196018160809355
:1037F0009601C8010E94520312C087E0F4011192A1
:103800008A95E9F70CC080E991E00E945203E0E953
:10381000F1E087E0DF011D928A95E9F7F12C8F2D09
:103820006496EFE00C94A3269A3078F5863068F51C
:10383000E82FF0E086E0989FE00DF11D11249E2F07
:10384000977083E0F695E7958A95E1F7EE0FFF1FF5
:10385000EE0FFF1FEE5CFD4F40E050E080E0219155
:1038600030E0092E02C0369527950A94E2F72170C0
:103870003327042E01C0220F0A94EAF7822B4F5FF0
:103880005F4F4430510559F7089580E008959A300C
:1038900088F5863078F5E82FF0E086E0989FE00D17
:1038A000F11D11248E2F877051E001C0550F8A95AC
:1038B000EAF783E0F695E7958A95E1F7EE0FFF1FAB
:1038C000EE0FFF1FEE5CFD4F20E030E070E0408126
:1038D000CB01022E02C0969587950A94E2F781707B
:1038E000819584278523842781932F5F3F4F243040
:1038F000310569F708959C0126703327263031057C
:1039000011F4886001C0877F90931802809317029A
:103910000895E0911702F091180221E030E0D901FA
:1039200002C0AA0FBB1F8A95E2F7C90102C0880F27
:10393000991F6A95E2F78A2B9B2B02C0220F331F37
:103940004A95E2F7AF01482359238417950721F4DC
:10395000CF01822B932B05C020953095C9018E2372
:103960009F230E947B1C089521E030E002C0220FBB
:10397000331F8A95E2F72095309580911702909138
:103980001802822393230E947B1C089521E030E0DB
:1039900002C0220F331F8A95E2F78091170290919F
:1039A0001802822B932B0E947B1C08959093160281
:1039B000809315020895CF9310925A02C6E0E4E571
:1039C000F2E0DF018C2F1D928A95E9F780E090E00C
:1039D0000E94982180E090E00E9473211092D5010E
:1039E0000E94F314EBE7F2E0DF011D92CA95E9F7BC
:1039F0001092740210927502109276020E94522266
:103A0000CF910895882341F080959091D501892325
:103A10008093D5010E94F3140895882339F0909182
:103A2000D501892B8093D5010E94F3140895882332
:103A300021F00E94EC140E94F3140895882339F0B9
:103A400090915A02892B80935A020E94F314089590
:103A500090917D02662309F470C091110CC0909181
:103A60007E02911108C090918002911104C0909142
:103A70007F02992331F098E09093740291E0909343
:103A800075028D3C21F40E949E22819504C08E3CDB
:103A900029F40E949E2280937E02C3C08F3C21F4B1
:103AA0000E949E22819504C0803D29F40E949E229E
:103AB00080937D02B6C0893D19F40E947C2205C026
:103AC0008A3D31F40E947C22819580937F02A9C0B7
:103AD0008B3D21F40E947C22819504C08C3D29F409
:103AE0000E947C22809380029CC09FE2980F9830B5
:103AF00078F421E030E0A90102C0440F551F9A95E7
:103B0000E2F7CA0190917C02892B80937C0289C0E4
:103B10008D3D21F48091760281600CC08E3D21F4B0
:103B200080917602826006C08F3D09F07AC0809154
:103B3000760284608093760274C08D3C39F4909153
:103B40007E0297FF33C010927E0257C08E3C29F44C
:103B500090917E021916BCF329C08F3C29F497FF7F
:103B600025C010927D0249C0803D19F41916CCF38E
:103B70001DC090917F02893D29F41916BCF4109262
:103B80007F023BC08A3D19F497FF10C0F8CF8B3DF0
:103B900039F49091800297FF09C0109280022DC0E5
:103BA0008C3D21F4909180021916BCF39FE2980F8E
:103BB000983080F421E030E0A90102C0440F551F85
:103BC0009A95E2F7CA01809590917C0289238093AF
:103BD0007C0213C08D3D21F4809176028E7F0BC054
:103BE0008E3D21F4809176028D7F05C08F3D29F4B2
:103BF000809176028B7F8093760280917D02811185
:103C000006C080917E02811102C0109274028091E0
:103C10007F02811106C080918002811102C0109242
:103C200075020E9452220895882381F19CEF980F1B
:103C3000913A18F40E944D210DC090E2980F9830EF
:103C400060F4877091E001C0990F8A95EAF7892F97
:103C50000E94EC140E94F31408959BE5980F933092
:103C600028F480E090E00E949821089598E5980F4C
:103C70009B3128F480E090E00E947321089593E343
:103C8000980F933118F460E00E94281D0895CF9397
:103C9000882309F452C0C82F8CEF8C0F813A88F426
:103CA000E4E5F2E08AE592E02191C21709F43FC011
:103CB0008E179F07C9F76C2F82E592E00E94592169
:103CC00010C080E28C0F883078F4C77081E090E0FB
:103CD00001C0880FCA95EAF790915A02892B809308
:103CE0005A020E94F31429C0EBE5EC0FE33040F4D4
:103CF000F0E0EB5DFE4F808190E00E9498211DC0B6
:103D0000E8E5EC0FEB3150F4F0E0EE0FFF1FE85D5B
:103D1000FE4F808191810E9473210FC083E38C0F3D
:103D2000833158F461E08C2F0E94281D06C08C2F2F
:103D30000E944D210E94F314BECFCF9108951F938E
:103D4000CF93DF93182FEB010E94471E209741F07D
:103D50008FE99FE00197F1F700C000002197F6CFAF
:103D6000812F0E94141EDF91CF911F910895A6E02C
:103D7000B0E0EDEBFEE10C94932626E0FC01DE01C1
:103D8000119601900D922A95E1F7FC012581898118
:103D90009A81222359F0662349F00E94061A182FAF
:103DA000682F89819A810E94471C03C00E94141CBD
:103DB000182F69817A81812F0E946E132696E3E085
:103DC0000C94AF26ABE1B0E0E8EEFEE10C94922655
:103DD0004E8B5F8B688F798F8A8F9B8F911110929A
:103DE000D5018E01015F1F4F87E0D8011D928A9592
:103DF000E9F786E0FE017696D80101900D928A954A
:103E0000E1F780911A0282FF26C00E944D10209196
:103E1000D2013091D301821B930B843C994040F036
:103E20008091D40182FB992790F981E0892701C014
:103E300080E080FF03C082E00E944C150E944D107C
:103E40002091DE013091DF01821B930B843C99406D
:103E500010F00E94CC148B89882321F061E0C80106
:103E60000E94B71E87E0FE013F96DE011896019082
:103E70000D928A95E1F7CE0108960E946A1A811187
:103E80003BC087E0FE013896DE01119601900D924D
:103E90008A95E1F76C85662379F12091970130E0EE
:103EA000C9010196877099274091D00150E084178D
:103EB0009507A1F06D8397E0929FD001939FB00D7D
:103EC0001124A856BE4FFE01319601900D929A958D
:103ED000E1F7809397010E94BB150EC00E94DB1C86
:103EE000109297011092D001E0E9F1E087E0DF0144
:103EF0001D928A95E9F719C017E08091D001909141
:103F00009701891791F0189FC001112488569E4F80
:103F10000E946A1A882349F08091D00190E00196AE
:103F2000877099278093D001E8CF6B96E4E00C94DA
:103F3000AE260E94DB1C2FEF84E39CE021508040E2
:103F40009040E1F700C000009AE088E10FB6F894D5
:103F5000A895809360000FBE90936000FFCF0E94F1
:103F6000DB1C2FEF84E39CE0215080409040E1F780
:103F700000C0000087E797E790930108809300084E
:103F80009AE088E10FB6F894A895809360000FBE80
:103F900090936000FFCF9C013A9521153F4130F589
:103FA000BC0166277270AC01442754709C01222723
:103FB000387094FF0FC090FF02C080E101C080E024
:103FC000672B09F08062452B09F08064232B79F080
:103FD00080680895892F8170672B09F08260452BD6
:103FE00009F08460232B19F08860089580E008951B
:103FF000CF93DF93EC01805E9109089710F0209732
:1040000031F4CE010E94CB1F0E941E1D05C0CE01BF
:104010000E94CB1F0E940D1D8C2F0E94471EDF9116
:10402000CF9108950F931F93CF93DF93EC01C9971E
:1040300019F000E010E002C000E510E0CE010E949F
:10404000F81F0115110549F08FE99FE00197F1F77D
:1040500000C0000001501109F4CF8C2F0E94141EE3
:10406000CE01805E9109089710F0209731F4CE01BF
:104070000E94CB1F0E94171D05C0CE010E94CB1FBE
:104080000E94021DDF91CF911F910F91089540E092
:1040900050E060E070E089E290E00E948C24882388
:1040A00019F088E490E064C06EE070E082E190E096
:1040B0000E94CC22882319F08FEA95E0C2C068E103
:1040C00070E083E190E00E94CC22882319F084EA1A
:1040D00095E0B7C06AE070E083E190E00E94CC22F6
:1040E000882319F08CE895E0ACC062E170E083E1D0
:1040F00090E00E94CC22882319F085E795E0A1C0CA
:1041000068E070E08AE190E00E94CC22882319F0F8
:1041100089E595E096C068E170E087E090E00E9454
:10412000CC22882319F08DE495E08BC068E070E024
:1041300087E090E00E94CC22882319F087E395E085
:1041400080C04AE050E067E070E087E090E00E94C5
:104150008C24882319F089E195E073C060E170E058
:104160008AE090E00E94CC22882329F085E397E042
:104170000E941220089567E070E08CE090E00E94B9
:10418000CC22882319F08BE095E05BC065E170E0FC
:104190008CE090E00E94CC22882319F08DEF94E00F
:1041A00050C066E070E08CE090E00E94CC22882352
:1041B00019F083E496E0DCCF6BE170E08CE090E0F6
:1041C0000E94CC22882319F082E496E0D1CF66E1E8
:1041D00070E08CE090E00E94CC22882319F08BE301
:1041E00091E0C6CF40E150E067E070E08CE090E005
:1041F0000E948C24882319F085E497E0B9CF46E12A
:1042000050E06BE070E086E090E00E948C24882310
:1042100019F082E493E0ACCF6CE070E083E190E0D1
:104220000E94CC22882319F085EF94E00AC06CE04C
:1042300070E089E090E00E94CC22882321F08CEE8F
:1042400094E00E94D62308951F920F920FB60F920A
:1042500011248F939F93AF93BF9380918C02811110
:1042600013C08091750190917601A0917701B09172
:1042700078014196A11DB11D80937501909376013F
:10428000A0937701B0937801BF91AF919F918F91E7
:104290000F900FBE0F901F901895E2E5F2E092810B
:1042A000891301C01282319692E0E835F907B9F717
:1042B00008959C01FC0132969FEF80E041914617E2
:1042C00089F09F3F19F4411101C0982F8F5F86300C
:1042D000A9F79F3F39F0F901E90FF11D97FDFA9514
:1042E000628308950895A3E0B0E0E9E7F1E20C9459
:1042F000942620918A0230918B0228173907A1F069
:1043000090938B0280938A02E0918802F091890257
:10431000309751F024E029839B838A830084F185C0
:10432000E02DCE01019609952396E2E00C94B0268B
:10433000A3E0B0E0EEE9F1E20C949426209186022D
:104340003091870228173907A1F090938702809354
:104350008602E0918802F0918902309751F023E0C3
:1043600029839B838A830084F185E02DCE01019609
:1043700009952396E2E00C94B0268091840288236C
:1043800059F0E0918802F0918902309729F001906C
:10439000F081E02D0995089580E008950F931F9313
:1043A000CF93DF93C42FD22FFC0185818823B1F0F6
:1043B000409383020E944D10909382028093810269
:1043C00080E28C0F883008F068C0C77081E001C0BF
:1043D000880FCA95EAF70E941E1D5FC08091830274
:1043E00048133DC080918102909182020E94321058
:1043F000883C9105A0F510E21D0FCD17E9F080E291
:104400008C0F883040F4C77081E001C0880FCA95D6
:10441000EAF70E94171D183078F581E09D2F9770FC
:1044200001C0880F9A95EAF70E941E1D093351F5C5
:1044300060E570E089E329C0093319F460E570E0B4
:1044400002C060E070E0802F0E949F1E183028F5A7
:10445000D77081E001C0880FDA95EAF70AC080E2E0
:104460008C0F8830D0F4C77081E001C0880FCA95E6
:10447000EAF70E94171D11C0093351F460E570E09E
:1044800089E309C060E070E0802F0E949F1EE0CFAA
:1044900060E070E0802F0E949F1EDF91CF911F91FE
:1044A0000F9108950E944D1020917D02211104C0AA
:1044B00020917E02222321F090937A028093790248
:1044C00020917F02211104C020918002222321F03B
:1044D0009093780280937702E0918802F0918902AC
:1044E000309749F082E080937B020680F781E02DCF
:1044F0008BE792E0099508958091760280FD16C0C1
:1045000081FD16C082FD18C080917502882391F04C
:10451000883290F428E0829FC001112468E270E0A4
:104520000E940D27862F672B29F007C082E008958F
:1045300084E0089581E0089588E0089580917602EE
:1045400080FD14C081FD14C082FD16C080917402EC
:10455000882381F08E3180F420E5829FC0011124F0
:104560006EE170E00E940D27862F089584E1089582
:1045700088E2089588E0089580E50895282F35EBB6
:104580002303C001112497FF03C08058910902C082
:1045900080589F4F892F089540E050E00E948C245E
:1045A000089580917302882369F08091710290913F
:1045B00072020E94321021E08535914008F420E01B
:1045C000822F01C080E081700895CF92DF92EF9238
:1045D000FF92CF93DF93EC01C0906602D090670208
:1045E000E0906802F0906902C701B6010E941610BF
:1045F000643F71408105910568F4C0926202D092D7
:104600006302E0926402F092650284EF91E0A0E020
:10461000B0E00EC00E94411060936202709363028A
:10462000809364029093650282E390E0A0E0B0E0A2
:1046300080935E0290935F02A0936002B093610248
:10464000D0936E02C0936D02DF91CF91FF90EF90F7
:10465000DF90CF900895FF920F931F93CF93DF9336
:1046600000916F02109170020115110509F45AC0F2
:1046700010926E0210926D0210926A0210926B02FA
:10468000D80117962D913C911897A9015A9541157B
:104690005F4108F4307EC22FD1E0211101C0D0E08B
:1046A000F82ED8011A96ED91FC911B97309739F0AE
:1046B0001C966D917C911D9780E00995D823DD2390
:1046C00069F08CEF8C0F813A20F48C2F0E944D21E1
:1046D00005C00E94F3148C2F0E94141EE0916F02FB
:1046E000F091700240815181FF2071F0818584FD3D
:1046F0000BC080916C02882339F091E09A0121501F
:1047000031092F333E4708F090E090FF03C0CA0103
:104710000E94E5220E94F3141092700210926F0220
:1047200010926C02C801CDB7DEB7E5E00C94AD265F
:10473000FC0185818623C1F492819923B9F081859A
:10474000692383FF04C081E0611111C00DC0892F6E
:104750008F7092959F70982B862F8F7062956F70D7
:10476000682B81E0961719F080E0089581E00895A4
:1047700080915D02882329F082E20E94021D10923E
:104780005D02089580915D0281110FC010925A025E
:104790000E94CC140E944D108056904F90935C0262
:1047A00080935B0281E080935D020895A0E0B0E019
:1047B000ECEDF3E20C948C26EC018AE0A82EFE01CD
:1047C0002491222309F4A3C0213009F044C031967A
:1047D0008491813059F42296FE018491893319F035
:1047E00060E070E08EC060E570E08BC0823031F434
:1047F0002296FE0184910E94471E87C0833031F4C7
:104800002296FE0184910E94141E7FC0843009F01C
:104810007BC02296FE01249180E090E030E020539E
:1048200031092A30310560F4A89EA001A99E500DDF
:104830001124C901840F951F2196FE012491EECF0A
:10484000009709F462C0EFE9FFE03197F1F700C08B
:1048500000000197F5CFE22FF0E0EB51FA4FB49052
:10486000822F86958695869590E0FC01EB52FA4F53
:10487000E4902770F12C022E02C0F594E7940A947C
:10488000E2F7F1E0EF22FF24FC01EB53FA4FC49072
:10489000D12C022E02C0D594C7940A94E2F731E0DD
:1048A000C322DD24FC01EB54FA4F049110E002C056
:1048B000159507952A95E2F701701127E114F10487
:1048C00019F081EE0E94471EC114D10419F086EE42
:1048D0000E94471E60E070E08B2D0E949F1EC11455
:1048E000D10419F086EE0E94141EE114F10419F0AF
:1048F00081EE0E94141E0115110539F060E070E090
:104900008CE20E949F1E01C0EF01219658CFCDB7C7
:10491000DEB7EAE00C94A82620918D0230918E0239
:1049200028173907D9F480918F0290919002861749
:104930009707A1F4809191029091920284179507B4
:1049400069F48091930290919402892B39F481E06B
:104950002091950230919602232B09F080E081701E
:104960000895FC01AC014B5F5F4F8FEF91E3219104
:10497000822728E030E087FF03C0880F892701C025
:10498000880F21503109B9F7E417F50781F7089529
:104990008EE14A9B02C08150E1F74A9BFECF089509
:1049A0005A9880E28A95F1F75A9A0895FC012AE014
:1049B0002A95F1F728E090E080E031E040E14A9567
:1049C000F1F7880F4A9B02C08160932700C0000066
:1049D00040E14A95F1F7215089F720E12A95F1F756
:1049E00029B100C0000030E13A95F1F722FB2227FF
:1049F00020F992272081920F90830895A1E0B0E0E2
:104A0000E4E0F5E20C94902619828C017C01E60E1C
:104A1000F11C0E151F0551F00E94C824CE0101960D
:104A20000E94D624F80181938F01F3CF81E0998110
:104A3000911180E02196E6E00C94AC26529A5A9AA5
:104A4000089552985A9AEA9AE9E6F0E080818F7CBC
:104A500080830895615091E001C0990F6A95EAF74B
:104A600020E031E0992361F0492F482319F05A9A48
:104A7000232701C05A9840E24A95F1F79695F2CF64
:104A8000222311F05A9A01C05A9880E28A95F1F7D0
:104A90005A980895FF920F931F93CF93DF93EC01E1
:104AA0008C01060F111DC017D10741F0F9900E942B
:104AB000D02468E08F2D0E942A25F5CFCDB7DEB730
:104AC000E5E00C94AD261F920F920FB60F921124C1
:104AD0000F931F932F933F934F935F936F937F9306
:104AE0008F939F93AF93BF93EF93FF93CF93DF93F6
:104AF0001F92CDB7DEB719820E94C824CE0101965D
:104B00000E94D624082F069506950695902F969517
:104B10009570202F2570920F292F237096959695CA
:104B2000920F877089135FC0898181115CC0043046
:104B300008F059C080E18A95F1F75A9A529A82E0BA
:104B40008A95F1F700C05A9888E0089F80011124E7
:104B5000D801AE5FBE4F1696ED91FC911797309736
:104B6000A9F060915E0170915F0114962D913C91C6
:104B70001597260F371F11968D919C911297680FEC
:104B8000791F13964C9113978C910995F801EE5F5C
:104B9000FE4F6381662351F080915E0190915F0129
:104BA00024813581820F931F0E944A250E94D024C0
:104BB00080E18A95F1F75A9852985A9A80E18A953D
:104BC000F1F7F801EE5FFE4F6081662351F08091AE
:104BD0005E0190915F0121813281820F931F0E94BB
:104BE000FE240E94C8240F90DF91CF91FF91EF9196
:104BF000BF91AF919F918F917F916F915F914F91F5
:104C00003F912F911F910F910F900FBE0F901F900A
:104C100018950F931F93CF93DF93843091050CF079
:104C20006DC0EC01F894529A5A9885E08A95F1F794
:104C300000009C2F969595702C2F2570920F892F30
:104C400083709695969523E0CC0FDD1F2A95E1F7AA
:104C5000980F8E01092B0E94D02484E08A95F1F7E9
:104C600000C068E0802F0E942A2580E18A95F1F734
:104C700052985A9A4A9902C000C0FCCF87E090E04F
:104C80004A9B08C0019721F4529A5A9A789436C0E8
:104C900000C0F6CFFE01EE5FFE4F6381662381F018
:104CA00080915E0190915F0124813581820F931F75
:104CB0000E94FE24811104C0529A5A9A78941FC00F
:104CC0000E94C82480E28A95F1F75A98529A80E1AE
:104CD0008A95F1F7CE5FDE4F6881662351F08091AF
:104CE0005E0190915F0129813A81820F931F0E949A
:104CF0004A250E94D024789481E001C080E0DF91B1
:104D0000CF911F910F9108952F923F924F925F92F2
:104D10006F927F928F929F92AF92BF92CF92DF92CB
:104D2000EF92FF920F931F93CF93DF93CDB7DEB730
:104D3000CA1BDB0B0FB6F894DEBF0FBECDBF0994C4
:104D40002A88398848885F846E847D848C849B841B
:104D5000AA84B984C884DF80EE80FD800C811B8129
:104D6000AA81B981CE0FD11D0FB6F894DEBF0FBE58
:104D7000CDBFED010895F999FECF92BD81BDF89A9E
:104D8000992780B50895A8E1B0E042E050E00C9486
:104D9000FF26DC01A40FB51F4150504048F0CB0165
:104DA000840F951F2E910E94DA2641505040D0F773
:104DB0000895262FF999FECF92BD81BDF89A0197EB
:104DC00000B4021639F01FBA20BD0FB6F894FA9A53
:104DD000F99A0FBE08950396272F0E94DA260E94A3
:104DE000D926252F0E94DA26242F0C94DA26019644
:104DF000272F0E94DA260C94D926DC01CB01FC0176
:104E0000F999FECF06C0F2BDE1BDF89A319600B423
:104E10000D9241505040B8F7089597FB072E16F4B5
:104E2000009407D077FD09D00E94272707FC05D002
:104E30003EF4909581959F4F0895709561957F4FB1
:104E40000895EE0FFF1F0590F491E02D0994AA1B21
:104E5000BB1B51E107C0AA1FBB1FA617B70710F065
:104E6000A61BB70B881F991F5A95A9F78095909597
:104E7000BC01CD010895FB01DC0104C08D910190BE
:104E8000801921F441505040C8F7881B990B0895B0
:104E9000FB01DC0102C001900D9241505040D8F757
:064EA0000895F894FFCF15
:104EA60001010000000100000000000000050100F3
:104EB6000000040600000000000001360B850B35DB
:104EC6000B7E0B770B818283E200E900EA00B500D6
:104ED600B600B700CD008301CC008A01920194018F
:104EE6002102230224022502260227022A02B300F7
:104EF600B4006F0070009F01CB019F02A002F60173
:0C4F06006697C63435F6F73133323600BA
:00000001FF
