:100000000C94D5020C94F2020C94F2020C94B825D4
:100010000C94F2020C94F2020C94F2020C94F20290
:100020000C94F2020C94F2020C94B1100C94F30FA5
:100030000C946F220C94F2020C94F2020C94F202D3
:100040000C94F2020C94F2020C94F2020C94F20260
:100050000C94F2020C9406220C94F2020C94F2021C
:100060000C94F2020C94F2020C94F2020C94F20240
:100070000C94F2020C94F2020C94F2020C94F20230
:100080000C94F2020C94F2020C94F2020C94F20220
:100090000C94F2020C94F2020C94F2020C94F20210
:1000A0000C94F2020C94F2020C94F202C6073A0885
:1000B000CE0798079C07D2079F07D507E007AA0736
:1000C0003008AE07E407B207E8071208B607EC07E6
:1000D0001C08BC07F207FC07A307D907A607DC0723
:1000E000C107F707080828082A089407CA07430821
:1000F000DB08DB0819091909EC0AAC09EC0AEC0A5F
:10010000B109460A590A590AA60BAC0B5908A00BAB
:10011000B20BB80BBE0B120E390ED10F390ED10F28
:10012000810EA40ED10F930FA60F2D6B62206C6968
:100130006C7935382F72657631202D6B6D206268B1
:1001400061726174687965730101280020636F6DC5
:1001500070696C65200020666C6173682000716DA9
:100160006B0005010902A10185020901A100050931
:10017000190129081500250195087501810205015D
:10018000093009311581257F9502750881060938E6
:100190001581257F950175088106050C0A38021521
:1001A00081257F950175088106C0C005010906A15A
:1001B00001050719E029E71500250195087501815A
:1001C000029501750881010507190029FF15002610
:1001D000FF0095067508810005081901290515001D
:1001E0002501950575019102950175039101C009DD
:1001F000023B00020100A0FA090400000103010112
:1002000000092111010001224400070581030800B3
:10021000010904010001030000000921110100018E
:10022000224900070582032000011201000200009C
:100230000008D8042DEB0001010200010E034C0060
:1002400069006C00790035003800000010036C0074
:1002500069006C00690075006D0073000000040304
:100260000904167C1E001F002000210022002B0024
:1002700014001A00090013000500A15204281524D7
:10028000162217210A27A2521D001B000600070094
:10029000190000002824E30021522C002F002A001E
:1002A00027002600250024002300340033001C0012
:1002B00018000F000D002D0012280C240822112117
:1002C000102F2E003800370036000B000E00000003
:1002D000587C2A002252280030004800010001000A
:1002E0000100010001003A003B003C003D003E00DF
:1002F0003F0035001E021F022002210222020100DF
:1003000001000100010001000100000001000100E6
:10031000010001000100D200D000CD00CE00CF00CE
:10032000D100450044004300420041004000350236
:1003300027022602250224022302310230022F0264
:100340002E022D02000000000100010023520100D6
:100350000100010001000100010001000100350061
:100360001E001F002000210022003A003B283C24F0
:100370003D223E213F004000410042004300440036
:1003800045000000010001002352010001000100AE
:1003900001000100010001000100D100D9004D0061
:1003A00052004A004B004600DA004F005100500056
:1003B0004E00310030002F002E002D002E020000D4
:1003C00001000100010001000100017C00000000AB
:1003D000000000000000007C0000000000000000A1
:1003E0000000037C00000000000000000000047C0E
:1003F00000000000000000000000000001000100FB
:10040000010001000000017C00000000000000006D
:100410000000007C00000000000000000000037CE1
:1004200000000000000000000000047C000000004C
:1004300000000000000000000100010001000100B8
:1004400000000102E20102E1780103E10103E200A0
:100450000102E20102E1640103E10103E2006874C8
:100460007470733A2F2F73746172742E6475636B9A
:100470006475636B676F2E636F6D0A0062737269D8
:100480006E69766173616E4064616C65742E636F32
:100490006D00627372696E69766173616E00626885
:1004A00061726174687965734074656368636F6EC7
:1004B00061746976652E636F6D0062686172617444
:1004C00068796573406F75746C6F6F6B2E636F6DB9
:1004D00000626861726174687965732E696E406745
:1004E0006D61696C2E636F6D006268617261746822
:1004F000796573004F6B61792E00000000000000E9
:1005000000000000000000000000000000000000EB
:1005100000000000000000000000000000007E0F4E
:1005200000D4FFFFFFC700000078000000000000BB
:1005300000002A2B2800000000000000000000003E
:10054000000000000029000000002C1E34202122A1
:1005500024342627252E362D3738271E1F2021220A
:10056000232425263333362E37381F040506070883
:10057000090A0B0C0D0E0F10111213141516171873
:10058000191A1B1C1D2F3130232D350405060708B1
:10059000090A0B0C0D0E0F10111213141516171853
:1005A000191A1B1C1D2F3130354C11241FBECFEFE3
:1005B000DAE0DEBFCDBF11E0A0E0B1E0E4E9FFE4A6
:1005C00002C005900D92AA34B107D9F722E0AAE43F
:1005D000B1E001C01D92A837B207E1F70E94AB1746
:1005E0000C94C8270C940000A8E0B0E0EAEFF2E019
:1005F0000C94D926FC018481882311F40C94C40B3B
:100600007F0121E0408151816281738195810E9447
:10061000681F98878F8383379C4781F4D70115968D
:100620008C91882309F44DC580914802882319F0E4
:100630000E94FF2446C50E94092543C5EF81F88525
:10064000E23A22E5F20779F130F4CF0190528115B8
:10065000904240F01AC08F819885823B924509F400
:100660006CC313C0F7018681807F09F063C32F81BB
:100670003885832F99278F7199278230910599F0BA
:10068000429709F45AC3C90106C04F815885413EBB
:10069000510549F0CA01853E910539F08091480223
:1006A000882371F163C081EE90E09C0127703327AD
:1006B00081E090E001C0880F2A95EAF73091480266
:1006C00020914C01332361F0D70115963C913323DF
:1006D00011F0822B02C08095822380934C01F1C4DB
:1006E000322F3823D9F2982F9095292320934C014B
:1006F0000E942916F7018581882309F4E2C4CECF30
:10070000D70115968C91882309F4D0C0EF81F88524
:10071000E13EF10519F0E23AF24529F580914F01E9
:10072000882381F0D70112968D919C911397209187
:100730004D0130914E01821B930B8F3F9F4710F06C
:100740000E94092581E080934F01F70122813381C6
:1007500080912B0190912C01820F931F90934E0159
:1007600080934D01A3C010924F01A0C0109145028B
:100770000091CB010E9463228056904F90934702D4
:1007800080934602D70115963C90332009F48EC021
:10079000102B1D7909F074C0EF81F885E03422E553
:1007A000F207C0F4E11532E5F30708F07FC0E11568
:1007B00040E4F40748F4E11550E2F50758F5E63E49
:1007C000F10509F03EC072C08F8198858115904572
:1007D00080F137C0EF81F885E03E22E5F20798F41A
:1007E000E03C32E5F30708F061C0E03642E5F4078B
:1007F00040F1E03A52E5F50708F458C0E43BF24511
:1008000009F454C01EC08F81988587579C47029772
:10081000C0F44CC0D70116968C91807F71F4888506
:100820008F71843109F442C0863151F586EE92E130
:100830000AC0F7018681807FF1F18F819885992721
:1008400002C08F8198851092C0018832910530F4E2
:100850008E319105F8F4049798F00EC08D32910511
:1008600059F018F48A97B1F00BC08C34910591F0CF
:100870008D32924079F004C082E08093C0010AC0BA
:100880000E94FF249091450280914C01892B809316
:1008900045020CC080914C01882331F09091C00139
:1008A00082E089278093C0010E943016D7011596F7
:1008B0003C903320D9F02F8138852E354CE7340712
:1008C00059F02F355CE7350759F02D353C4771F469
:1008D00080910401811104C081E080930401F1C37F
:1008E0001092040180E00E947224EBC38091040105
:1008F000811107C0D70115968C91882309F4FBC399
:100900007EC18F809884B0EE8B1A91082090CB0125
:100910008091BC01282A80914502282AE8E08E16A1
:10092000910488F42F8138852770332781E090E087
:1009300001C0880F2A95EAF7332011F0282A1AC03F
:100940008095282217C0332009F415C12F813885DE
:1009500030935101209350010E945722609351021D
:100960007093520280935302909354021092590252
:1009700010925802D7018D919C910E94201D21E078
:1009800030E0F90102C0EE0FFF1F8A95E2F7FC8309
:10099000EB8320915A0230915B023E832D8340907D
:1009A0005001509051011982632C712C3981E32F31
:1009B000F0E0EE0FFF1FE050FF4F008111810115A5
:1009C000110509F4F1C0211005C0D80112968C91CF
:1009D0008111CDC0F801838194812B813C818223D8
:1009E0009323892B09F4C3C08185982F977009F44C
:1009F00087E038E08316910440F4332019F081FD3C
:100A000009C0B5C082FD06C0B2C0332009F4AFC032
:100A100080FFADC0D801AD90BC90EF81F885EA159C
:100A2000FB0519F4332009F4A2C02D813E81021781
:100A3000130709F49CC0D8011E96ED91FC911F97F5
:100A4000309721F08081882309F491C0622DC8017C
:100A50000E94DF24882309F48AC0EF81F885EA1513
:100A6000FB0511F4630102C0C12CD12CFC2DF170E7
:100A7000FA8381E0A114B10431F0F11104C0A4148F
:100A8000B50409F080E080FF72C080E00E9472240B
:100A900010935B0200935A0281E080935702D801C1
:100AA00016968C9180935502BA81B11110C0AB2873
:100AB00071F0F801808191819C0124503109213A23
:100AC000310518F40E94982202C00E94ED1ED80140
:100AD0001796AD90BC901897C5019A9581159F41C6
:100AE00010F4E0EEBE2277247394C50101978F3392
:100AF0009E4708F0712CD8011A96ED91FC911B9736
:100B0000309739F01C966D917C911D9781E0099585
:100B10007822772029F1F801878190850E947B2037
:100B200080935602C501F8E08F16910418F40E94D4
:100B30002C2416C00497813A910530F46A2D8DE378
:100B400092E00E94A4220EC00E9430168FE39CE91E
:100B50000197F1F700C000008A2D0E940E1F02C00D
:100B60000E94301691E0C926C0FEE1C0C3CEA98123
:100B7000AF5FA9831BCF8091500190915101EF810C
:100B8000F885E817F90781F410925101109250018D
:100B9000109251021092520210925302109254027B
:100BA000109259021092580280915A0290915B0261
:100BB000009709F49FCEB8E08B16910438F4622DAB
:100BC0000E94DF24811196CE81E016C0FC012081B5
:100BD00031814F8158854217530729F4311006C0DF
:100BE0001092570208C0332009F484CEDC01199614
:100BF0008C9185FD7FCE80E00E9472247BCE909107
:100C00001B02992309F470C20E941824811132C07A
:100C10008F81988590528115904218F40F81188524
:100C200008C08F81988590540F8118858115904157
:100C300008F4112780915E028530C0F5811106C04D
:100C40000E94632290935D0280935C0280915E0219
:100C5000E82FF0E0EE0FFF1FEF58FE4F11830083E7
:100C60008F5F80935E020E94632290935D02809367
:100C70005C0227C22F81388528353C47D9F4809102
:100C80001B02811117C081E080931B020E94632226
:100C900090935D0280935C0210925E028AE0E1E72D
:100CA000F1E0DF011D928A95E9F704C010921B0262
:100CB0000E94F020D70115968C91882309F434C541
:100CC000EF81F885E1372CE7F20709F4FDC0E23740
:100CD0003CE7F30709F4FEC0E037FC4789F1EF81F8
:100CE000F885E851FC47E730F10508F425C5811186
:100CF000FBC0EF81F885E631FC4709F00EC2909108
:100D00004502292F2A7A987809F0F7C1882309F437
:100D1000FAC181E0211101C080E0809359012223B2
:100D200009F4EFC165E38DE392E00E94A4220E94E2
:100D30003016C7C18F819885AECC85EE90E0ABCCE4
:100D400080902B0190902C018091050190910601DB
:100D50008816990639F480915801803219F482E599
:100D600091E03CC0909206018092050180E2809360
:100D70005801A12CB12C1092570107E511E01C82FB
:100D80001B829AE0492E512C612C712CC501B401B3
:100D9000A30192010E947627605D603321F48B816C
:100DA0009C81892B39F081149104A104B10419F4B8
:100DB00060E201C060E3D8016E938D01C501B4010A
:100DC000A30192010E94762749015A01EB81FC811F
:100DD0003196FC83EB833597C9F6C1CF9C838B8317
:100DE0000196AB81BC812C912032C1F31AE0EB81DA
:100DF000FC818081882309F464C1813009F05CC0E2
:100E00008181813059F46F01F2E0CF0ED11CAB81AA
:100E1000BC8112968C910E94491F0CC0823069F4EB
:100E2000CB80DC80B2E0CB0ED11CEB81FC818281D7
:100E30000E940E1FDC82CB8241C0833061F4CB80E4
:100E4000DC80F2E0CF0ED11CAB81BC8112968C917C
:100E50000E94ED1EEFCF843031F0EB81FC813196A2
:100E6000FC83EB832BC0AB81BC8112962C91129733
:100E70001296BC83AB8380E090E030E020533109D0
:100E80002A30310578F4189FA001199F500D1124C4
:100E9000C901840F951FEB81FC813196FC83EB83A4
:100EA0002081EBCF009751F0AFE9BFE01197F1F748
:100EB00000C000000197F6CF0E943C23EB81FC812B
:100EC0003196FC83EB8393CF80912B0190912C0181
:100ED000059605C080912B0190912C010597909368
:100EE0002C0180932B01EDC010926E022F8138856A
:100EF00030572332310508F09AC384E090E00E9415
:100F000018279093050280930402EF81F885E15041
:100F1000F047E232F10520F4EA5AFF4F0C9498278B
:100F2000809104028160ACC0809105028860B4C0E9
:100F3000809104028260A4C08091040220C080914C
:100F4000040288609DC0809105021EC08091050248
:100F50008260A2C080910402806192C080910402EC
:100F600080628EC08091040280648AC00E94BC1D91
:100F700080910402806884C080910402886084604B
:100F80007FC0809105028260816086C080910402EA
:100F90008E7F76C080910502877F7EC0809104029B
:100FA0008D7F6EC08091040220C080910402877FF3
:100FB00067C0809105021EC0809105028D7F6CC0C4
:100FC000809104028F7E5CC0809104028F7D58C0A6
:100FD000809104028F7B54C00E94BC1D809104024A
:100FE0008F774EC080910402877F8B7F49C08091AC
:100FF00005028D7F8E7F50C08091040282FB2227E4
:1010000020F991E0922790FB82F990FB83F938C098
:1010100080910502982F909591708E7F892B90FB7F
:1010200081F93AC08091040286FB222720F991E0E1
:10103000922790FB86F924C00E94BC1D8091040277
:1010400087FB222720F991E0922790FB87F918C0AF
:1010500061E001C060E08EE090E00E942E271EC09B
:101060008091040284FB222720F991E0922790FBD3
:1010700084F906C080910402982F909590FB80F926
:10108000809304020BC08091050283FB222720F984
:1010900091E0922790FB83F980930502609104020E
:1010A0007091050284E090E00E944C270E94BC1DD4
:1010B00008C006E221EE41EE6AE17CE7C7010E942A
:1010C000CF228091BF01877009F45EC3D7011596C6
:1010D0008C91882309F458C38091050282FF54C380
:1010E00082E00E94891650C34F81588548355C477D
:1010F00009F0E6CDC8CD80E0F2CD882321F0109232
:10110000590169E210CE80915901882311F085E3DD
:1011100001C089E20E9498220ACED7010D90BC91AD
:10112000A02DBC83AB838B819C810E94201D182F36
:101130006B817C81812F0E94D0140E94ED148A83E0
:101140009983C82EF7010581168112951F70809131
:10115000BF01877001F10023F1F0892F807F803477
:1011600069F08C2D805E8830B0F0892F807E8032CF
:1011700029F4F1E0FC1578F4112369F0809105025F
:1011800082FF09C082E00E9489168091BF018770AA
:10119000DD24D3948111D12CB980B2948FE0B82290
:1011A0008B2D90E08C30910508F016C2FC01E858B8
:1011B000FF4F0C9498278981807F29812F70298384
:1011C000882321F0322F3295307F39830023D1F0EC
:1011D0004981442309F4EDC18A81805E883010F092
:1011E000C11007C0809145025981582B5093450288
:1011F00006C08091C0016981682B6093C0010E9484
:101200003016D7C18A810E94ED1E8981882309F496
:10121000E3C19A81905E983010F0C11002C08981BC
:1012200037C0A981A0958091C001A823A093C001D7
:1012300031C08981807FB981BF70B983803221F04C
:10124000EB2FE295E07FE9838A81CC2029F0F1E061
:10125000CF1609F469C072C08091050282FD1DC0DD
:10126000002371F02981222339F080914502282B37
:10127000209345020E94301680E00E940E1FACC1F0
:1012800080E00E94ED1E3981332309F4A5C1832F2C
:101290000E9429160E9430169FC1002371F111236C
:1012A00009F450C01130A1F48091CB01498184230D
:1012B000481709F491C10E9463229093CA01809358
:1012C000C9018091CB015981582B5093CB0184C126
:1012D000143009F081C189810E94F71D89810E9423
:1012E00014168091BC01998198236981691709F4CA
:1012F00073C1682B6093BC016FC1111102C0898159
:101300000AC0113009F068C1809145029981892392
:1013100009F462C1892F0E94F01D89810E94141670
:1013200089810E94CE1658C1002321F0163008F0A2
:1013300053C108C0153008F04FC10AC0002331F076
:10134000111137C189810E94F71D46C1111136C1A3
:1013500089810E94F01D40C1602F8A810E94011E78
:1013600041C18981837009F045C0011139C12A81C9
:10137000229526952770220F220F8A818F7090E088
:10138000022E02C0880F991F0A94E2F7FA81F4FF37
:101390000BC04FE050E002C0440F551F2A95E2F702
:1013A0009A012095309502C020E030E049814695B1
:1013B0004695437049834230A1F070F44091000299
:1013C000509101026981613029F0822B932B842393
:1013D000952304C0842B952B822B932B0E94B71D41
:1013E000FFC0822B932B20910002309101028227B3
:1013F0009327F4CF002319F08981817001C086956D
:10140000882309F4EDC02A81229526952770220FA2
:10141000220F8A818F7090E0022E02C0880F991FE0
:101420000A94E2F7AA81A4FF0BC04FE050E002C08B
:10143000440F551F2A95E2F79A012095309502C076
:1014400020E030E0B981B695B695B370B983B2307B
:1014500079F0B8F44091020250910302B13029F0C2
:10146000822B932B842395230EC0842B952B09C0AC
:10147000822B932B20910202309103028227932723
:1014800002C0822B932B0E94871DAAC0E981EF70B6
:10149000E983002339F08E2F0E94A71D8A810E94C4
:1014A000F71D9EC08A810E94F01D89810E94951DB2
:1014B00097C08A81F2EFCF16A9F1FC1538F020EF22
:1014C000C21659F031EFC31631F16EC043EFC416A6
:1014D00081F154EFC516D9F067C00023A1F0153093
:1014E00008F07AC069816F71698381E090E002C081
:1014F000880F991F6A95E2F720910202309103024A
:101500008227932726C0163008F066C0EBCF809163
:10151000050282FD21C0002339F089818F710E946C
:10152000A71D5AC00023C9F389818F710E94951DA0
:1015300053C0002361F089818F71898381E090E03D
:10154000098002C0880F991F0A94E2F702C080E068
:1015500090E00E94871D40C00023C1F08091BF0130
:101560008770843039F40E94821689818F710E94BD
:10157000951D5BC0143008F058C099819F71998304
:10158000892F0E94A71D63E0898107C0143040F0B5
:101590000E94821664E089818F710E94B71645C04F
:1015A00081E00E94891641C0002329F0112309F42B
:1015B000B4CF8A8162CE112309F4B6CF893349F4BE
:1015C000AFEFB7EEE3E0A150B040E040E1F700C07C
:1015D00000008A810E94ED1E88EF8B0D843010F48C
:1015E0000E94BE22DD20B1F08091BF0180FD12C0BB
:1015F000D70115961C928695869586950E94A71D03
:10160000C7010E94F4028091BF0186958695869558
:101610000E94951D20E0F701408151816281738114
:10162000848195810E94681FAFC0D12CD9CF4F8192
:10163000588546315C4709F462CB2F8138852430C8
:101640004CE73407A9F178F421306CE7360709F14B
:1016500023308CE73807B9F021153C4709F050C01A
:101660000E945F202ECDAF81B885AB35ECE7BE0779
:10167000D9F0AC35FCE7BF0779F0AA35BC4709F0D3
:101680003FC081E012C06FEF7FEF80E090E00E94EA
:101690004C270E94492015CD8091050282FB8827A6
:1016A00080F991E0892701C080E00E94A01628C03F
:1016B0009091CB0180914502892B0E9481148983EE
:1016C0000E940916109245028EE591E00E94BC0C22
:1016D000398132723A83332319F086E591E002C0F2
:1016E0008CE491E00E94BC0C8AE291E00E94BC0C68
:1016F0004A81442329F05981517111F00E945F20E1
:10170000F7018581208131813C832B83882309F473
:101710000ACD8B819C810E944B1B182F682F8B81D7
:101720009C810E94531D04CDEF81F885E851FC4750
:10173000E730F10508F0DDCAEC57FF4F0C9498270D
:1017400007E225EE45EE6BE17CE7B8CC06E221EE40
:1017500040EE68E17CE7B2CC07E225EE44EE69E1B9
:101760007CE7ACCC06E221EE42EE6CE17CE7A6CC55
:1017700007E225EE46EE6DE17CE7A0CC08E221E031
:1017800045EE6EE17CE79ACC2896E2E10C94F526D2
:101790008091690187FF11C08091E80082FD05C03A
:1017A000809167018111F8CF11C08091E8008B779B
:1017B0000BC080916701882349F08091E80080FF89
:1017C000F8CF8091E8008E778093E8000895982FF5
:1017D000973068F59093E900981739F07091EC0014
:1017E0002091ED005091F00003C0242F762F50E09F
:1017F00021FD02C09F5FECCF3091EB003E7F309324
:10180000EB003091ED003D7F3093ED003091EB0027
:1018100031603093EB007093EC002093ED00509317
:10182000F0002091EE0027FDE5CF80E008958F7055
:101830008093E90081E0089520916F01309170015B
:101840002617370748F06115710539F42091E80033
:101850002E772093E80001C0B901FC0120E061155A
:10186000710579F1809167018823F1F18530F1F1FB
:101870008091E80083FD3CC08091E80082FD2EC08D
:101880008091E80080FFEBCF2091F3008091F2007F
:1018900090E0922B6115710551F08830910538F474
:1018A00021912093F100615071090196F3CF21E05D
:1018B000089709F020E08091E8008E778093E80097
:1018C000CECF2111CFCF0AC080916701882361F06C
:1018D000853061F08091E80083FD0AC08091E800C6
:1018E00082FFF2CF80E0089582E0089583E00895BA
:1018F00081E008950895089546E050E0BC0182E03B
:101900000E94C8210895CF93DF93EC0148E050E096
:10191000BC0181E00E94C82188E0FE01ADE5B1E094
:1019200001900D928A95E1F7DF91CF910895209172
:1019300071013091720128173907D9F48091730130
:101940009091740186179707A1F480917501909189
:1019500076018417950769F4809177019091780159
:10196000892B39F481E02091790130917A01232B80
:1019700009F080E081700895FF920F931F93CF9339
:10198000DF938C018AE0F82EF8018491882309F412
:101990004CC0813009F042C0E8012196FE018491DB
:1019A000813031F42196FE0184910E94491F39C093
:1019B000823039F4E8012296FE0184910E940E1FC4
:1019C00030C0833039F4E8012296FE0184910E94F0
:1019D000ED1E27C0843029F5E8012296FE012491EE
:1019E00080E090E030E0205331092A30310560F486
:1019F000F89EA001F99E500D1124C901840F951F76
:101A00002196FE012491EECF009759F0EFE9FFE017
:101A10003197F1F700C000000197F6CF0E943C23F8
:101A2000E8018E010F5F1F4FAFCFCDB7DEB7E5E006
:101A30000C940227FC01AC014B5F5F4F8FEF91E3E9
:101A40002191822728E030E087FF03C0880F892793
:101A500001C0880F21503109B9F7E417F50781F764
:101A60000895AAE2B0E0E7E3FDE00C94E826E9E699
:101A7000F1E081E791E02091F10021938E179F071B
:101A8000D1F780916A01833009F461C030F481306C
:101A900071F0823009F49BC0B2C08A3009F487C06B
:101AA0008B3009F46CC0893009F0A9C020C0809146
:101AB0006901813A09F0A3C08091E800877F809393
:101AC000E80080916D0190916E01892B21F468E00E
:101AD0008DE591E003C060E080E090E070E00E945E
:101AE0001C0C8091E8008B778093E80088C080917F
:101AF0006901813209F083C080916D0190916E017E
:101B0000029708F07CC08091E800877F8093E8000E
:101B10008091E80082FD05C0809167018111F8CFB6
:101B20006EC02091F3008091F20090E0922B02971A
:101B300031F48091F100813011F0863021F48091F0
:101B4000F10080935C018091E8008B7754C0809114
:101B50006901813A09F053C080916D0190916E0145
:101B6000892B09F04CC08091E800877F8093E800C2
:101B70008091E80080FFFCCF8091070137C0809101
:101B800069018132E1F580916D0190916E01892B9F
:101B9000B1F58091E800877F8093E8000E94C80B30
:101BA00080916B01809307010E94BC1D28C0809129
:101BB0006901813221F58091E800877F8093E800F8
:101BC0000E94C80B80916C0180935B0118C08091CA
:101BD0006901813AA1F48091E800877F8093E80051
:101BE0008091E80080FFFCCF80915B018093F10041
:101BF0008091E8008E778093E8000E94C80B809166
:101C0000E80083FFCEC18091690190916A01492F5C
:101C100050E04A30510508F0C4C1FA01E557FF4FC2
:101C20000C949827803821F0823809F0BAC108C096
:101C30008091650190916601992389F082600FC0BF
:101C400080916D018F70873008F0ABC18093E900FF
:101C50008091EB0085FB882780F91092E900909134
:101C6000E800977F9093E8008093F1001092F100D4
:101C700065C1282F2D7F09F094C1882319F0823087
:101C800061F08FC180916B01813009F08AC193307E
:101C900009F080E0809366012EC080916B01811174
:101CA0002AC080916D018F702FEF280F263008F029
:101CB00078C18093E9002091EB0020FF1CC0933095
:101CC00021F48091EB00806214C09091EB00906150
:101CD0009093EB0021E030E0A90102C0440F551FB2
:101CE0008A95E2F74093EA001092EA008091EB00B7
:101CF00088608093EB001092E9008091E800877F74
:101D000020C181114EC110916B011F778091E300BA
:101D10008078812B8093E3008091E800877F809317
:101D2000E8000E94C80B8091E80080FFFCCF809102
:101D3000E30080688093E300111102C082E001C0DB
:101D400083E0809367012DC18058823008F029C15B
:101D500080916B0190916C018C3D53E0950779F572
:101D600083E08A838AE289834FB7F894DE01139671
:101D700020E03EE051E2E32FF0E050935700E49181
:101D800020FF03C0E295EF703F5FEF708E2F90E071
:101D9000EA3010F0C79601C0C0968D939D932F5FD7
:101DA000243149F74FBF8091E800877F8093E80096
:101DB0006AE270E0CE0101960E941C0CAEC0409118
:101DC0006D0150916E01292F332723303105A9F081
:101DD00068F42130310509F4F3C02230310509F0EF
:101DE000E0C08BE390E0EFEEF1E044C0213231053A
:101DF00021F12232310571F1D4C09927813091054A
:101E0000A1F058F0029709F0CCC0ECE3F2E0E491C5
:101E10008E2F90E0ECE3F2E02AC0EEE5F2E0E491F0
:101E20008E2F90E0EEE5F2E022C0ECE4F2E0E491E7
:101E30008E2F90E0ECE4F2E01AC04115510509F450
:101E4000C4C04130510509F0ACC089E090E0EAE13E
:101E5000F2E010C04115510509F4BCC041305105F4
:101E600009F09FC089E490E0E2E6F1E003C000974A
:101E700009F497C02091E800277F2093E800209183
:101E80006F01309170018217930708F49C0140E0C4
:101E90002115310589F180916701882309F43DC03E
:101EA0008530D9F18091E80083FD37C08091E8004A
:101EB00082FD2FC08091E80080FFEACF4091F300BF
:101EC0008091F20090E0942B2115310559F0883073
:101ED000910540F444914093F1003196215031092D
:101EE0000196F2CF41E0089709F040E08091E800C8
:101EF0008E778093E800CCCF4111CDCF0AC080917E
:101F00006701882351F0853041F08091E80083FD1E
:101F100004C08091E80082FFF2CF8091E8008B77C7
:101F20008093E8003EC08038E1F58091E800877F2B
:101F30008093E800809168018093F1008091E8002F
:101F40008E778093E8000E94C80B2BC0811129C0B6
:101F500080916B0190916C019927029714F5809103
:101F6000E800877F8093E80010916B01109368016F
:101F70000E94C80B111106C08091E30087FD02C0CA
:101F800081E001C084E08093670142E061EC81E080
:101F90000E94E70B42E261EC82E00E94E70B809135
:101FA00067018091E80083FF1AC08091E800877F75
:101FB0008093E8008091EB0080628093EB000FC07B
:101FC00082E190E0EAE2F2E055CF89E090E0E1E0E2
:101FD000F2E050CF84E490E0EBEAF1E04BCFAA9638
:101FE000E3E00C9404271F920F920FB60F92112476
:101FF0002F933F934F935F936F937F938F939F9311
:10200000AF93BF93CF93DF93EF93FF93C091E9001A
:10201000CF708091EC00D82FD17080FDD0E8109265
:10202000E9008091F000877F8093F00078940E940F
:10203000310D1092E9008091F00088608093F000EB
:10204000CD2BCF70C093E900FF91EF91DF91CF913D
:10205000BF91AF919F918F917F916F915F914F91C0
:102060003F912F910F900FBE0F901F901895E8EDA4
:10207000F0E080818E7F80831092E2001092DA007F
:102080001092E100A0EEB0E08C9181608C93808191
:102090008F77808319BCA7EDB0E08C918E7F8C93F5
:1020A00080818F7E808310925A010895A0E0B0E075
:1020B000ECE5F0E10C94E326C8EDD0E088818F7E5A
:1020C0008883E7EDF0E080818160808384E082BFD7
:1020D00081E080935A0188818E7F888302EE10E030
:1020E000F80110821092DA0081EEC82ED12CF60190
:1020F000108288818F77888388818068888388812F
:102100008F7D888319BC109267011092680110922C
:1021100066011092650190EEE92EF12CF7018081A5
:102120008B7F808388818160888342E060E080E0EB
:102130000E94E70BF60180818E7F8083F801808109
:1021400081608083808188608083F70180818E7FB9
:102150008083888180618883CDB7DEB7E8E00C9406
:10216000FF261F920F920FB60F9211242F933F93C9
:102170004F935F936F937F938F939F93AF93BF938F
:10218000EF93FF938091E10082FF09C08091E2000C
:1021900082FF05C08091E1008B7F8093E1008091F8
:1021A000DA0080FF2AC08091D80080FF26C080918D
:1021B000DA008E7F8093DA008091D90080FF18C00A
:1021C00080E189BD82E189BD09B400FEFDCF81E0D7
:1021D0008093670180915A0181110FC00E943710CE
:1021E0000E9456108091E20084608093E20005C056
:1021F00019BC1092670110925A018091E10080FF92
:1022000017C08091E20080FF13C08091E2008E7FB2
:102210008093E2008091E20080618093E2008091EF
:10222000D80080628093D80019BC85E08093670154
:102230008091E10084FF30C08091E20084FF2CC0D7
:1022400080E189BD82E189BD09B400FEFDCF8091A6
:10225000D8008F7D8093D8008091E1008F7E80939D
:10226000E1008091E2008F7E8093E2008091E200A5
:1022700081608093E20080916801882311F084E0FE
:1022800007C08091E30087FD02C081E001C083E0C8
:1022900080936701809167018091E10083FF27C0EF
:1022A0008091E20083FF23C08091E100877F8093CB
:1022B000E10082E080936701109268018091E10063
:1022C0008E7F8093E1008091E2008E7F8093E20018
:1022D0008091E20080618093E20042E060E080E073
:1022E0000E94E70B8091F00088608093F000FF91DE
:1022F000EF91BF91AF919F918F917F916F915F917E
:102300004F913F912F910F900FBE0F901F901895F6
:102310002091E4003091E50095E64091EC00842F97
:10232000817040FF23C08091E80080FD1DC0809136
:102330006701882399F0853099F08091EB0085FD45
:1023400011C04091E4005091E5002417350729F3AE
:10235000915011F09A01E1CF84E0089582E0089550
:1023600083E0089581E0089580E008954091E800B9
:1023700042FFDDCF089580E008958238910569F12C
:10238000B0F48133910509F475C048F489329105A0
:1023900009F467C08A32910509F471C00895853344
:1023A000910509F459C089339105B9F00895833E28
:1023B000910589F138F4803E9105D1F0823E910576
:1023C00029F10895863E9105C9F1873E9105D9F11D
:1023D000843E910509F06CC027C02091040220FDC5
:1023E00057C021FD55C02091050223FD5BC0089513
:1023F0008091040280FD48C08091050280FF48C0A2
:102400008091040284FD46C083EE51C08091040295
:1024100082FF3CC0F5CF8091040282FD37C08091DD
:10242000050280FD35C0ECCF8091050281FF36C0EA
:102430008091040284FD2EC087EE39C08091040291
:1024400083FF2AC0F5CF8091040283FD25C08091CF
:10245000050281FD23C0ECCF8091040285FD22C0DE
:102460001FC08091040285FD1BC08091050283FF7F
:1024700019C00AC08091040286FD16C017C0809161
:10248000040286FD13C010C089E311C082EE0FC0A4
:1024900080EE0DC080E00BC086EE09C084EE07C060
:1024A00085E305C089E203C08AE201C081E390E0D0
:1024B0000895EF92FF921F93CF93DF9300D000D047
:1024C00000D0CDB7DEB77B0180E090E00E945E26B1
:1024D000882309F456C040910B0150E04115510585
:1024E00011F041E050E060910C0170910D016F51CD
:1024F0007E4FCE0106960E94BF276091DD0170914C
:10250000DE018091DF019091E0010E942C2264366F
:1025100071058105910538F482EE91E00E941A0D53
:102520009E81891781F181E090E00E945E26182F3C
:10253000882391F04091130150E04630510510F08E
:1025400045E050E060911401709115016F517E4F8C
:10255000CE0101960E94BF2782EE91E00E941A0DE3
:1025600091E02E81281390E0192311F10E94572247
:102570006093DD017093DE018093DF019093E001B1
:102580000CC010E001C011E085E0E2EEF1E0DE01F8
:10259000119601900D928A95E1F7112349F085E09B
:1025A000FE013196A8EDB1E001900D928A95E1F718
:1025B00085E0E8EDF1E0D70101900D928A95E1F711
:1025C000812F26960FB6F894DEBF0FBECDBFDF91E8
:1025D000CF911F91FF90EF900895F894E82FE29526
:1025E000EF70F0E031A1282F2F7081E090E001C062
:1025F000880F2A95EAF7982F9095932391A392A19B
:10260000892B82A378940895AFE0B0E0EAE0F3E18B
:102610000C94DC26AE014F5F5F4F7A018AE0DA014D
:102620001D928A95E9F70FE311E06A0184E4682EB0
:1026300081E0782EAA24A394B12C2AE4822E21E0F2
:10264000922EF80180818F3F09F440C0F894E82F62
:10265000E295EF70F0E021A18F70A50102C0440F58
:10266000551F8A95E2F7CA01922F982B91A392A148
:102670008095892382A3789400C0E4E4F1E0512C92
:1026800031E021912F3F89F0A22FA295AF70B0E0E9
:1026900090968C9190E02F7002C0959587952A9521
:1026A000E2F780FD02C0832F01C080E0582A330F7B
:1026B0008E169F0631F7D8018C918F3F11F00E9442
:1026C000ED12B0EABA95F1F7F60150820F5F1F4F95
:1026D000FFEFCF1ADF0A6016710609F0B2CF4AE0A9
:1026E00050E0B70184EF91E00E94B227892B99F066
:1026F0008AE0F701A4EFB1E001900D928A95E1F72D
:1027000081E08093D0010E9463229093CF01809357
:10271000CE01F12C27C08091D0018823D1F3009104
:10272000FF018091CE019091CF010E944822059730
:1027300080F310E00A5F1D4F45E050E064EF71E068
:10274000C8010E94B227892B09F4BFC085E0E4EFDD
:10275000F1E0D80101900D928A95E1F7FF24F394FE
:102760001092D00180916F02E091FF01882309F45B
:1027700058C06E012BE0C20ED11C85E0D6011D921F
:102780008A95E9F70E2F10E00A5F1D4F8091EF0147
:102790008A3048F449E552E1B601C8010E94161B8F
:1027A000882399F00AC08091D1019091D2010E94B2
:1027B0004822843F914070F71AC043E657E1B601C2
:1027C000C8010E94161B81116DC08091EF018F3FDF
:1027D00019F08F5F8093EF018091EF018A3008F448
:1027E00063C00E9463229093D2018093D1018091B3
:1027F000D701882309F450C085E0F60111928A952B
:10280000E9F71092D701A091FE01B0E0AA5FBD4F99
:1028100085E0FE013B9601900D928A95E1F781E0FB
:102820003CC0F0E0EA5FFD4F85E0A2EEB1E0019030
:102830000D928A95E1F782EE91E00E941A0D809345
:10284000E1018090E7019090E801A090E901B0904B
:10285000EA018091D3019091D401A091D501B0916A
:10286000D60188169906AA06BB06B1F08092D3015C
:102870009092D401A092D501B092D6010E94572225
:10288000861A970AA80AB90A8092F0019092F1017B
:10289000A092F201B092F30180E08F292F96EFE031
:1028A0000C94F8261092EF018091FE0190E045E033
:1028B00050E0B6018A5F9D4F0E94B22721E020932D
:1028C000D701892B09F09FCFE7CFF12C49CF0F9388
:1028D0001F9380916F02882319F00E9457220EC027
:1028E0000E9457220091F0011091F1012091F20114
:1028F0003091F301600F711F821F931F1F910F9181
:1029000008959091040292FF10C041E0282F247195
:10291000243009F040E031E0282F2871283009F0F8
:1029200030E0431711F02CE0822793FF10C041E004
:10293000282F2471243109F040E031E0282F28713C
:10294000283109F030E0431711F02CE08227309154
:10295000050230FF10C051E0282F2171213009F00D
:1029600050E041E0282F2871283009F040E054174A
:1029700011F029E0822731FF10C041E0282F21719A
:10298000213109F040E031E0282F2871283109F089
:1029900030E0431711F029E0822794FD877E0895E7
:1029A0007A30B0F46630A0F48430A0F49CE3899FC0
:1029B000F001112486E0789FE00DF11D1124E60F4F
:1029C000F11DEE0FFF1FEE59FD4F85919491089573
:1029D00080E001C081E090E008951F93CF93DF93E2
:1029E0000E94BD11EC01C11582E5D807C8F5C115DB
:1029F00090E5D90708F0BBC0C83ED105C0F4C03E81
:102A0000D10508F0DDC0C53AD10550F4C430D10578
:102A100008F0D6C0219709F0D0C081E090E0D1C085
:102A2000CD3CD10508F4C9C0CE019065CAC0C1151E
:102A300080E4D80708F05AC0C11590E2D90708F021
:102A4000AFC0C11581E0D80708F4B7C08D2F0E9430
:102A50008114182FCE0199270E94BD111F71ABC0A0
:102A6000C03892E5D90720F5C03682E5D80708F0CE
:102A700061C0C03492E5D90708F04AC0C03282E58F
:102A8000D807F0F54C2F4695469590E2499FA00156
:102A90001124C37021E030E0C90102C0880F991FE2
:102AA000CA95E2F7EA01C82BD92BCE019D6889C0EF
:102AB000C03C92E5D90768F48C2F8F71C03AD2459B
:102AC00008F04CC090E0D82FCC27CE01846F906ADC
:102AD00078C0C03E82E5D80708F06FC0CF71DD270F
:102AE000DC2FCC27CE01806F906A6BC0CE01992776
:102AF0000E94BD11CC27DF70D06A8C2B9D2B61C04A
:102B0000CF71D0E0DC2FCC27CE01816F906A59C005
:102B10008C2F8F718695869590E2899F9001112464
:102B2000C37081E090E002C0880F991FCA95E2F758
:102B30009C6811C08C2F8F718695869590E2899F35
:102B400090011124C37081E090E002C0880F991FAA
:102B5000CA95E2F79A68822B932B33C00E948114A6
:102B60008F7190E0D82FCC27CE0190622AC08C2F95
:102B70008F710E94811495E0D695C7959A95E1F7DB
:102B8000CF70D0E0DC2FCC27282F30E084FF05C0A9
:102B900084E0220F331F8A95E1F7D069CE01DBCFA5
:102BA0008D2F8F710E948114182FCE0199270E94BA
:102BB000BD111F719062912B04C080E090E001C0B4
:102BC000CE01DF91CF911F910895A6E0B0E0EBEE2A
:102BD000F5E10C94E7260E9463228C018091CC01E0
:102BE0009091CD010817190781F019821A820E946D
:102BF0006322682F49815A81792F80E090E00E94FA
:102C00008D1F1093CD010093CC012696E4E00C9427
:102C100003278091CB01882331F01092CB011092D1
:102C2000CA011092C90108959091CB01292F282340
:102C300079F0809589238093CB01882319F00E9435
:102C4000632202C080E090E09093CA018093C901A2
:102C500008958095909145028923809345020895B7
:102C6000CF93C09145028091C001C82B8091CB01C8
:102C70008823F1F00E9463222091C9013091CA019A
:102C8000821B930B843C994010F00E94091680919E
:102C9000CB01C82BEFE3F2E097E080E0915029F000
:102CA00021912223D9F38F5FF9CF81110E94091658
:102CB000809155028095C82380915602C82BC093FD
:102CC0003D0248E050E061EC71E08DE392E00E944B
:102CD000B227892BA9F088E0EDE3F2E0A1ECB1E0A6
:102CE00001900D928A95E1F7E0917102F0917202E4
:102CF000309731F00280F381E02D8DE392E0099569
:102D0000CF9108951092BF011092BE011092BD01A3
:102D100008959091BF01809589238093BF01282F4A
:102D2000277069F4981759F09091050292FF07C037
:102D30008695869586950E94951D0E948216089517
:102D40009091050292FB222720F9281779F080FB49
:102D500092F990930502609104027091050284E05B
:102D600090E00E944C2782E00E948916089590917D
:102D7000050292FF10C098E0899F90011124262B34
:102D80002093BF010E94A71D0E9463229093BE0161
:102D90008093BD0108950E94A71D08959091BC01E4
:102DA000292F282321F0809598239093BC01089522
:102DB0002091BB019091820157E02917A9F030E0E2
:102DC000529FF001539FF00D1124ED57FE4F71817A
:102DD000761306C07081781303C07581741306C022
:102DE0002F5F3F4F2770E9CF80E0089581E008957D
:102DF0008091BB0190918201891719F08F5F8770D4
:102E0000FBCF08950F931F93CF93DF9380918101A0
:102E100082958F7009F052C080918001882309F457
:102E20004DC08091BB014091820150917C01109175
:102E30007B0160917D0170917E01C0912B01D09149
:102E40002C0107E08417D1F190E0089FF001099F61
:102E5000F00D1124DF01AD57BE4F14962C9114973D
:102E6000222349F111962C911197251324C02C91FE
:102E7000211321C015962C91159721111CC0129673
:102E80002D913C911397261B370B2C173D0798F477
:102E9000809181018F70806180938101E757FE4F9F
:102EA00080818F70806180838BE791E00E94F402C3
:102EB0000E94F81603C001968770C4CFDF91CF91AE
:102EC0001F910F910895A4E0B0E0E9E6F7E10C94BA
:102ED000E9266091EB017091EC018091ED019091F8
:102EE000EE010E942C22643671058105910570F176
:102EF0000E946714DC01CB010296A11DB11D8983DC
:102F00009A83AB83BC838091190190911A018F51F0
:102F10009E4F4091180150E04530510510F044E0BB
:102F200050E0BE016F5F7F4F0E94BF2782E090E0BC
:102F30000E945E26882359F00E9457226093EB017D
:102F40007093EC018093ED019093EE0181E0249663
:102F5000E2E00C940527AEE0B0E0E1EBF7E10C9481
:102F6000D92685B7806885BF85B7806885BF84B757
:102F7000877F84BF0FB6F894A89580916000886120
:102F800080936000109260000FBE90E080E80FB662
:102F9000F89480936100909361000FBE8BEB91E1F8
:102FA00090934B0180934A010E9437100E94561063
:102FB0008091E20084608093E200789480916701C0
:102FC0008823A1F01091E9001F709091EC00892FE7
:102FD000817090FD80E8182B1092E9008091E80044
:102FE00083FD0E94310D1F701093E90082E084BDC3
:102FF00093E095BD9AEF97BD80936E001092F0011B
:103000001092F1011092F2011092F3018091D80018
:1030100080618093D8002AE12A95F1F700C0809161
:10302000D900182F117080FD04C00E943710109233
:10303000670110936F021093700210932001111119
:103040000E9473258091200180912001811102C08E
:1030500095E001C090E09093FF0185E0891B80938B
:10306000FE010FE311E074E4E72E71E0F72ED801C2
:103070008D918D018F3F11F00E94ED12E016F10647
:10308000B1F704E411E06AE4E62E61E0F62EF801FF
:1030900081918F018F3F11F00E94ED12E016F10631
:1030A000B1F78AE0E6E0F2E0DF01282F1D922A95D1
:1030B000E9F7E4EFF1E0DF011D928A95E9F780E09E
:1030C00090E00E941827863E9E4F09F466C066EE87
:1030D0007EEF80E090E00E944C2760E082E090E08C
:1030E0000E942E2781E090E09093010280930002DD
:1030F00061E083E090E00E942E2760E074E184E0CC
:1031000090E00E944C2760E086E090E00E942E272D
:103110006FEF87E090E00E942E2740E050E0BA0178
:1031200088E090E00E94402760E084E290E00E9406
:103130002E2760E087E190E00E942E2760E08CE07F
:1031400090E00E942E2760E08DE090E00E942E2704
:1031500019821A821B821C821D821E821F8218867F
:1031600048E050E068E170E0CE0101960E941E2721
:1031700040E050E0BA0180E290E00E94402740E049
:1031800050E0BA018FE090E00E94402740E050E01C
:10319000BA0183E190E00E94402782E090E00E9423
:1031A00010278093100284E090E00E9418279093EB
:1031B00005028093040283E090E00E94102790E0D3
:1031C0000E94B71D80916F02811102C00E94762576
:1031D00081E291E0909372028093710238E1A32E14
:1031E000B12C40E4342E5BE1852E52E0952E11E0A7
:1031F00080916701853009F041C020E1F22E02E1A3
:1032000080916701853009F035C080916701843075
:1032100009F1109273020FB6F894A895A09260007D
:103220000FBE3092600083B7817F846083BF83B715
:10323000816083BF7894889583B78E7F83BF0FB6F4
:10324000F894A89580916000886180936000109246
:1032500060000FBE80916601882391F20E940413E2
:10326000E6E0F2E081918111C1C122E0E031F20794
:10327000C9F7C6CF0E94BC1D0E94BE220E94041343
:1032800081E1E82E82E0F82E96E0C92E92E0D92E58
:10329000D601F70191918D9189278E169F0619F01D
:1032A0008823C1F305C0811103C00E94E51536C013
:1032B00020906F0200E0D6014D906D01F701508023
:1032C000542421F1712C66246394852D8621B9F054
:1032D0002220A9F079860A870E9463229C878B8727
:1032E000F1E0FD8791E0842D862109F490E09E872E
:1032F00049855A856B857C858D850E948D1F7394C9
:10330000660C26E07212E1CFD7014C920F5FBFEF3F
:10331000EB1AFB0A0A3079F60E94671480916F025B
:10332000882309F454C08091580290915902892B46
:1033300089F160914D0270914E0280914F029091FF
:1033400050020E942C22C0904902D0904A02E09084
:103350004B02F0904C026C157D058E059F05D0F058
:1033600080915802909159020E94A820109259020F
:103370001092580210924D0210924E0210924F027B
:10338000109250021092490210924A0210924B027F
:1033900010924C0280911B02882341F00E94182455
:1033A000882321F010921B020E94F0208091480295
:1033B000882369F00E9463222091460230914702DF
:1033C000821B930B8F3F9F4710F40E94FF2486E0DF
:1033D000E6E6F2E0DE01119601900D928A95E1F7A2
:1033E000C0906702F090680200916902E0906A0262
:1033F000D0906B02109268021092690210926A02D9
:1034000010926B02F11003C0002309F44BC08091AD
:103410006402909165020E9448229C0190915F0293
:10342000992309F4F9C025313105E0F19F3F19F0E6
:103430009F5F90935F02FF2061F00E94E5231F14BD
:1034400014F09FEF01C091E0899F802D112480939B
:103450006802002361F00E94E523101614F491E045
:1034600001C09FEF899F802D112480936902809174
:1034700068028823B9F070906902772099F00E9461
:103480000524882319F08093680202C01093680213
:10349000872D0E940524882319F08093690202C0B9
:1034A00010936902E11003C0DD2009F44BC0809144
:1034B0006202909163020E9448229C0190916002F6
:1034C000992309F4AEC021353105E0F19F3F19F091
:1034D0009F5F90936002EE2061F00E94C3231E1450
:1034E00014F09FEF01C091E0899F802D11248093FB
:1034F0006A02DD2061F00E94C3231D1414F491E0E0
:1035000001C09FEF899F802D112480936B028091D1
:103510006A028823B9F070906B02772099F00E94BC
:103520000524882319F080936A0202C010936A026E
:10353000872D0E940524882319F080936B0202C016
:1035400010936B0280916702C8121AC080916802C2
:10355000882311F0F81214C080916902882311F0B9
:1035600008130EC080916B02882311F0D81208C096
:1035700090916A02992331F081E0E91204C002C0FF
:1035800081E001C080E080FD15C08091680281115A
:103590000FC08091690281110BC080916A02811174
:1035A00007C081E090916B02911103C080E001C0DF
:1035B00081E080FD0E949923CA82FB820C83ED8208
:1035C000DE8286E0FE013196A6E6B2E001900D9221
:1035D0008A95E1F70E94BE2290911C02891709F496
:1035E00007CE80931C020E94572201CEF9BC09BD70
:1035F00009B400FEFDCF8091D8008F7D8093D80064
:103600008091E00082608093E0008091E00081FD85
:10361000FCCF0E94BC1DF4CD2B30310508F008CF43
:1036200041CF2B30310508F053CF8CCFA0E0B0E074
:10363000ECE1FBE10C94E1267C015B016A018091E5
:10364000EF018A3018F001E010E002C00AE010E05B
:10365000C1E0D0E0B501C701F6010995811115C09F
:1036600021960C171D0794F0CC9F9001CD9F300D33
:10367000300D112480E090E045E34A95F1F7000019
:10368000019682179307C1F7E5CF81E0CDB7DEB78A
:10369000EAE00C94FD26A0E0B0E0E1E5FBE10C944B
:1036A000E2267C0100910202109103028091000247
:1036B00090910102082B192BCFE0D0E0CC24C394C9
:1036C000D12CC6010C2E02C0880F991F0A94E2F774
:1036D00080239123892B21F4219798F7B12C09C0DD
:1036E000BC2EB7018C2F0E94D0140E94ED140197BC
:1036F00099F38B2DCDB7DEB7E9E00C94FE26CF937E
:10370000DF93EC010E944B1BBE010E94D0140E946B
:10371000ED14DF91CF910895FC0124812223D9F08B
:10372000808191810E947F1B92959F70963079F0E5
:1037300010F4925001C09A50923068F4803F69F0C2
:1037400018F4883E40F409C0843F29F406C0883E3E
:1037500020F0813F11F080E0089581E00895A4E118
:10376000B0E0E5EBFBE10C94DF268C0186E0F8018C
:10377000DE011F9601900D928A95E1F7F801848190
:10378000E5809BE7892E91E0992E90917F01911120
:1037900021C0882309F44DC1EE2009F447C0C801B7
:1037A0000E948C1BF82E882309F440C087E0F801A2
:1037B000D40101900D928A95E1F780917F018130CB
:1037C00031F480917B0190917C010E947F1B0E94CB
:1037D000021731C1F801D080C180A280B380F0907F
:1037E000800140917D0150917E0120912B0130910B
:1037F0002C01FF2009F4EBC0B501641B750B6217A7
:10380000730708F0A1C0882309F415C180918101D4
:10381000282F207F90917C01222361F09C1509F4D0
:1038200060C0C8010E948C1B811167C0C8010E9442
:10383000F402FFC09C1113C090917B019D110FC039
:10384000E1100DC08F708061809381018BE791E062
:103850000E94F40280918101F8018683E8C0E110A2
:103860003AC040E06C2D8D2D0E94D81640E06C2DA2
:103870008D2D0E94D816E82E8111D9C0DF86C88A06
:103880008F8598890E947F1B292F22952F702430C5
:1038900020F49F70223028F009C02A50223080F096
:1038A00014C0992349F0811107C013C0992321F056
:1038B000F8019681907F69F0805E883030F409C00D
:1038C000803F38F0815F833020F0C8010E94F4020D
:1038D000EF2CFE2CB0C0809181018160809381012A
:1038E000A6C090917B019D119CCFE1109ACFF80169
:1038F0008683C8010E94F4027DC0EE2009F496CFB1
:1039000020918101822F82958F7090E002978CF038
:1039100080917B0190917C0199878887BB86AA86DC
:1039200080917F018C871D862E87CE0108960E948C
:10393000F40287E0F801ABE7B1E001900D928A95BF
:10394000E1F70E94021775C090918101292F207F15
:1039500051F48BE791E00E94F40287E0F4011192A8
:103960008A95E9F764C0882309F465C080917C01D9
:103970008C110CC080917B018D1108C0E11006C034
:10398000F8019683C8010E94F4024BC0C8010E944E
:103990008C1B882309F44ACFEE2009F447CF2091ED
:1039A0008101822F82958F7090E0029714F28091AE
:1039B0007B0190917C019A838983BC82AB82809148
:1039C0007F018D831E822F83CE010196B0CFA41A72
:1039D000B50AA216B30628F5882359F1FE2CEE206D
:1039E00009F424CF80917C01C8120DC080917B0125
:1039F0008D1109C087E0F801ABE7B1E001900D92AD
:103A00008A95E1F718C0C8010E948C1B811191CFE3
:103A100080918101816080938101C8010E94F4023C
:103A20000AC087E0F40111928A95E9F704C0F12CED
:103A300002C0FF24F3948F2D6496ECE00C94FB26D7
:103A40009A3078F5863068F5E82FF0E086E0989FA8
:103A5000E00DF11D11249E2F977083E0F695E795F8
:103A60008A95E1F7EE0FFF1FEE0FFF1FE35EFD4F9C
:103A700040E050E080E0219130E0092E02C0369510
:103A800027950A94E2F721703327042E01C0220FF4
:103A90000A94EAF7822B4F5F5F4F4430510559F784
:103AA000089580E008959A3088F5863078F5E82FFB
:103AB000F0E086E0989FE00DF11D11248E2F8770B5
:103AC00051E001C0550F8A95EAF783E0F695E79536
:103AD0008A95E1F7EE0FFF1FEE0FFF1FE35EFD4F2C
:103AE00020E030E070E04081CB01022E02C09695CC
:103AF00087950A94E2F7817081958427852384272E
:103B000081932F5F3F4F2430310569F708959C0161
:103B1000267033272630310511F4886001C0877F75
:103B20009093030280930202089521E030E002C0E6
:103B3000220F331F8A95E2F720953095809102027B
:103B400090910302822393230E94871D089521E010
:103B500030E002C0220F331F8A95E2F78091020203
:103B600090910302822B932B0E94871D08959093BE
:103B70000102809300020895CF9310924502C6E09F
:103B8000EFE3F2E0DF018C2F1D928A95E9F71092A6
:103B9000C0010E943016E6E6F2E0DF011D92CA95F0
:103BA000E9F710925F0210926002109261020E9487
:103BB0009923CF910895882341F080959091C00179
:103BC00089238093C0010E9430160895882339F01C
:103BD0009091C001892B8093C0010E9430160895F6
:103BE000882321F00E9429160E9430160895882308
:103BF00039F090914502892B809345020E9430163E
:103C0000089590916802662309F470C091110CC068
:103C100090916902911108C090916B02911104C0BA
:103C200090916A02992331F098E090935F0291E0BD
:103C3000909360028D3C21F40E94E523819504C09D
:103C40008E3C29F40E94E52380936902C3C08F3C17
:103C500021F40E94E523819504C0803D29F40E944F
:103C6000E52380936802B6C0893D19F40E94C323FE
:103C700005C08A3D31F40E94C323819580936A0276
:103C8000A9C08B3D21F40E94C323819504C08C3DC3
:103C900029F40E94C32380936B029CC09FE2980F7B
:103CA000983078F421E030E0A90102C0440F551F9C
:103CB0009A95E2F7CA0190916702892B8093670277
:103CC00089C08D3D21F48091610281600CC08E3DE0
:103CD00021F480916102826006C08F3D09F07AC0B4
:103CE0008091610284608093610274C08D3C39F4DC
:103CF0009091690297FF33C01092690257C08E3CC1
:103D000029F4909169021916BCF329C08F3C29F45B
:103D100097FF25C01092680249C0803D19F419161A
:103D2000CCF31DC090916A02893D29F41916BCF4A8
:103D300010926A023BC08A3D19F497FF10C0F8CF79
:103D40008B3D39F490916B0297FF09C010926B0282
:103D50002DC08C3D21F490916B021916BCF39FE2AB
:103D6000980F983080F421E030E0A90102C0440FA0
:103D7000551F9A95E2F7CA018095909167028923B1
:103D80008093670213C08D3D21F4809161028E7F84
:103D90000BC08E3D21F4809161028D7F05C08F3D67
:103DA00029F4809161028B7F809361028091680287
:103DB000811106C080916902811102C010925F02D8
:103DC00080916A02811106C080916B02811102C04C
:103DD000109260020E94992308958823F1F09CEFCD
:103DE000980F913A18F40E9498220DC090E2980F13
:103DF000983060F4877091E001C0990F8A95EAF7D6
:103E0000892F0E9429160E943016089593E3980F77
:103E1000933118F460E00E94011E0895CF93882327
:103E2000B1F1C82F8CEF8C0F813A78F4EFE3F2E018
:103E30008191C81731F182E0E534F807C9F76C2F9A
:103E40008DE392E00E94A42210C080E28C0F8830A3
:103E500078F4C77081E090E001C0880FCA95EAF756
:103E600090914502892B809345020E9430160FC025
:103E700083E38C0F833158F461E08C2F0E94011E84
:103E800006C08C2F0E9498220E943016D8CFCF9166
:103E900008951F93CF93DF93182F893319F0C0E053
:103EA000D0E002C0C0E5D0E0812F0E940E1F209715
:103EB00041F08FE99FE00197F1F700C000002197E2
:103EC000F6CF812F0E94ED1EDF91CF911F910895B3
:103ED000A6E0B0E0EEE6FFE10C94E82649835A83C1
:103EE00049815A81992361F0222351F0CA010E942D
:103EF0004B1B182F682F89819A810E94531D04C083
:103F0000CA010E94201D182F69817A81812F0E9489
:103F1000D0142696E3E00C940427ABE1B0E0E3E98B
:103F2000FFE10C94E7264E8B5F8B688F798F8A8F29
:103F30009B8F192F91111092C001DE011F9687E00F
:103F4000FD0111928A95E9F786E0FE0176960190CF
:103F50000D928A95E1F70A8D8091050282FF26C0B5
:103F60000E9463222091BD013091BE01821B930B00
:103F7000843C994040F08091BF0182FB992790F9E1
:103F800081E0892701C080E080FF03C082E00E94B9
:103F900089160E9463222091C9013091CA01821BB7
:103FA000930B843C994010F00E940916002341F0C5
:103FB00021E04F85588969897A89C8010E94681F64
:103FC0000B8B1C8B87E0FE013F96DE01189601905B
:103FD0000D928A95E1F7CE0108960E94AF1B8111E0
:103FE0003BC087E0FE013896DE01119601900D92EC
:103FF0008A95E1F76C85662379F12091820130E0A2
:10400000C9010196877099274091BB0150E0841740
:104010009507A1F06D8397E0929FD001939FB00D1B
:104020001124AD57BE4FFE01319601900D929A9525
:10403000E1F7809382010E94F8160EC00E94BC1D19
:10404000109282011092BB01EBE7F1E087E0DF0103
:104050001D928A95E9F719C017E08091BB019091F4
:104060008201891791F0189FC00111248D579E4F2E
:104070000E94AF1B882349F08091BB0190E001961C
:10408000877099278093BB01E8CF6B96E4E00C948E
:1040900003270E94BC1D2FEF84E39CE02150804049
:1040A0009040E1F700C000009AE088E10FB6F89474
:1040B000A895809360000FBE90936000FFCF0E9490
:1040C000BC1D2FEF84E39CE0215080409040E1F73D
:1040D00000C0000087E797E79093010880930008ED
:1040E0009AE088E10FB6F894A895809360000FBE1F
:1040F00090936000FFCF9C013A9521153F4130F528
:10410000BC0166277270AC01442754709C012227C1
:10411000387094FF0FC090FF02C080E101C080E0C2
:10412000672B09F08062452B09F08064232B79F01E
:1041300080680895892F8170672B09F08260452B74
:1041400009F08460232B19F08860089580E00895B9
:10415000CF93DF93EC01805E9109089710F02097D0
:1041600031F4CE010E947B200E94F71D05C0CE01D4
:104170000E947B200E94E61D8C2F0E940E1FDF9163
:10418000CF9108950F931F93CF93DF93EC018B0191
:104190000E94A8200115110549F08FE99FE00197C1
:1041A000F1F700C0000001501109F4CF8C2F0E94DC
:1041B000ED1ECE01805E9109089710F0209731F432
:1041C000CE010E947B200E94F01D05C0CE010E94FE
:1041D0007B200E94DB1DDF91CF911F910F910895ED
:1041E00040E050E060E070E089E290E00E94970CCF
:1041F000882329F060E070E088E490E0C3C06EE0BE
:1042000070E082E190E00E941324882319F084EF8B
:1042100094E071C068E170E083E190E00E941324B3
:10422000882319F089EE94E066C06AE070E083E1CB
:1042300090E00E941324882319F081ED94E05BC084
:1042400062E170E083E190E00E941324882319F07A
:104250008AEB94E050C068E070E08AE190E00E9450
:104260001324882319F08EE994E045C068E170E0DA
:1042700087E090E00E941324882319F082E994E0FB
:104280003AC068E070E087E090E00E941324882341
:1042900019F08CE794E02FC04AE050E067E070E04E
:1042A00087E090E00E94970C882319F08EE594E057
:1042B00022C060E170E08AE090E00E94132488232D
:1042C00029F060E070E085E397E05CC067E070E0B3
:1042D0008CE090E00E941324882319F080E594E09C
:1042E0000AC065E170E08CE090E00E94132488230E
:1042F00029F082E494E00E94BC0C089566E070E02E
:104300008CE090E00E941324882329F060E070E0A4
:1043100083E496E037C06BE170E08CE090E00E94AF
:104320001324882329F060E070E082E496E02AC03C
:1043300066E170E08CE090E00E941324882329F06D
:1043400060E070E08BE391E01DC040E150E067E089
:1043500070E08CE090E00E94970C882329F060E0E8
:1043600070E085E497E00EC046E150E06BE070E05D
:1043700086E090E00E94970C882331F060E070E0C6
:1043800082E493E00E94C220089580915C01089528
:104390000F931F93CF93DF938B01EA0190916701F5
:1043A000943079F58F708093E9008FEF9091E80059
:1043B000815095FD06C095ED9A95F1F700008111A9
:1043C000F5CF8091E80085FF1CC00E9488118823EA
:1043D00061F08091E8008E778093E80012C0F801C8
:1043E00081918F018093F1002197209791F3809123
:1043F000E80085FDF4CF8091E8008E778093E80097
:10440000E4CFDF91CF911F910F91089578941F927F
:104410000F920FB60F9211248F939F93AF93BF9378
:104420008091740290917502A0917602B09177020A
:104430000196A11DB11D8093740290937502A09303
:104440007602B0937702BF91AF919F918F910F90B9
:104450000FBE0F901F901895CF92DF92EF92FF92B0
:104460002FB7F894C0907402D0907502E090760255
:10447000F09077022FBFA7019601261B370B480B40
:10448000590BCA01B901FF90EF90DF90CF900895CA
:104490009C014FB7F8948091740290917502A0919D
:1044A0007602B09177024FBF821B930B08952FB70E
:1044B000F8946091740270917502809176029091E7
:1044C00077022FBF08952FB7F894809174029091CE
:1044D0007502A0917602B09177022FBF08951F92C6
:1044E0000F920FB60F9211248F939F93AF93BF93A8
:1044F00080917302811113C08091740290917502B2
:10450000A0917602B09177024196A11DB11D8093D2
:10451000740290937502A0937602B0937702BF91D4
:10452000AF919F918F910F900FBE0F901F90189594
:10453000EDE3F2E09281891301C01282319692E09C
:10454000E334F907B9F708959C01FC0132969FEF17
:1045500080E04191461789F09F3F19F4411101C055
:10456000982F8F5F8630A9F79F3F39F0F901E90F47
:10457000F11D97FDFA9562830895089580916F0269
:10458000882359F0E0917102F0917202309729F07E
:104590000190F081E02D0995089580E008950F9332
:1045A0001F93CF93DF93C42FD22FFC0185818823E3
:1045B000B1F040936E020E94632290936D0280934B
:1045C0006C0280E28C0F883008F051C0C77081E027
:1045D00001C0880FCA95EAF70E94F71D48C0809174
:1045E0006E02481334C080916C0290916D020E945B
:1045F000482220912B0130912C018217930738F526
:1046000010E21D0FCD17B9F080E28C0F883040F416
:10461000C77081E001C0880FCA95EAF70E94F01DBB
:10462000183010F581E09D2F977001C0880F9A9582
:10463000EAF70E94F71D802F0E94491F1830B8F436
:10464000D77081E001C0880FDA95EAF70AC080E2EE
:104650008C0F883060F4C77081E001C0880FCA9564
:10466000EAF70E94F01D03C0802F0E94491FDF91CE
:10467000CF911F910F910895A0E0B0E0E2E4F3E242
:104680000C94E426E82FF0E0E65DFA4FD490282F52
:1046900026952695269530E0F901E65EFA4F0491BD
:1046A000877010E0082E02C0159507950A94E2F76E
:1046B00001701127F901E65FFA4FE490F12C082E02
:1046C00002C0F594E7940A94E2F791E0E922FF240E
:1046D000F901E650FB4FC491D0E002C0D595C795D3
:1046E0008A95E2F7C170DD270115110519F081EEF9
:1046F0000E940E1FE114F10419F086EE0E940E1FB5
:104700008D2D0E94491FE114F10419F086EE0E94DC
:10471000ED1E0115110519F081EE0E94ED1ECD2B45
:1047200019F08CE20E94491FCDB7DEB7E7E00C9488
:1047300000270E94632220916802211104C0209169
:104740006902222321F090936502809364022091F4
:104750006A02211104C020916B02222321F0909360
:10476000630280936202E0917102F09172023097CD
:1047700049F082E0809366020680F781E02D86E6AC
:1047800092E0099508958091610280FD16C081FD37
:1047900016C082FD18C080916002882391F0883293
:1047A00090F428E0829FC001112468E270E00E942A
:1047B0006227862F672B29F007C082E0089584E0E6
:1047C000089581E0089588E008958091610280FD58
:1047D00014C081FD14C082FD16C080915F02882341
:1047E00081F08E3180F420E5829FC00111246EE1BA
:1047F00070E00E946227862F089584E1089588E280
:10480000089588E0089580E50895282F35EB230367
:10481000C001112497FF03C08058910902C080583D
:104820009F4F892F089540E050E00E94970C089513
:1048300080915E02882369F080915C0290915D0214
:104840000E94482221E08535914008F420E0822F23
:1048500001C080E081700895CF92DF92EF92FF92C5
:10486000CF93DF93EC01C0905102D0905202E090C0
:104870005302F0905402C701B6010E942C22643FFB
:1048800071408105910568F4C0924D02D0924E02AC
:10489000E0924F02F092500284EF91E0A0E0B0E08D
:1048A0000EC00E94572260934D0270934E02809377
:1048B0004F029093500282E390E0A0E0B0E080933A
:1048C000490290934A02A0934B02B0934C02D093BA
:1048D0005902C0935802DF91CF91FF90EF90DF9083
:1048E000CF900895FF920F931F93CF93DF93009182
:1048F0005A0210915B020115110509F45AC0109279
:104900005902109258021092550210925602D80184
:1049100017962D913C911897A9015A9541155F4121
:1049200008F4307EC22FD1E0211101C0D0E0F82E72
:10493000D8011A96ED91FC911B97309739F01C968F
:104940006D917C911D9780E00995D823DD2369F056
:104950008CEF8C0F813A20F48C2F0E94982205C096
:104960000E9430168C2F0E94ED1EE0915A02F091A9
:104970005B0240815181FF2071F0818584FD0BC075
:1049800080915702882339F091E09A012150310932
:104990002F333E4708F090E090FF03C0CA010E9409
:1049A0002C240E94301610925B0210925A02109230
:1049B0005702C801CDB7DEB7E5E00C940227FC0131
:1049C00085818623C1F492819923B9F08185692379
:1049D00083FF04C081E0611111C00DC0892F8F7069
:1049E00092959F70982B862F8F7062956F70682BB1
:1049F00081E0961719F080E0089581E00895809194
:104A00004802882329F082E20E94DB1D10924802AE
:104A100008958091480281110FC0109245020E94B2
:104A200009160E9463228056904F9093470280930C
:104A3000460281E08093480208958EE14A9B02C0BD
:104A40008150E1F74A9BFECF08955A9880E28A95FB
:104A5000F1F75A9A0895FC012AE02A95F1F728E027
:104A600090E080E031E040E14A95F1F7880F4A9B01
:104A700002C08160932700C0000040E14A95F1F731
:104A8000215089F720E12A95F1F729B100C00000F3
:104A900030E13A95F1F722FB222720F99227208175
:104AA000920F90830895A1E0B0E0E9E5F5E20C945F
:104AB000E52619828C017C01E60EF11C0E151F05FE
:104AC00051F00E941D25CE0101960E942B25F80170
:104AD00081938F01F3CF81E09981911180E021963C
:104AE000E6E00C940127529A5A9A089552985A9ADD
:104AF000EA9AE9E6F0E080818F7C80830895615036
:104B000091E001C0990F6A95EAF720E031E099231E
:104B100061F0492F482319F05A9A232701C05A9867
:104B200040E24A95F1F79695F2CF222311F05A9A76
:104B300001C05A9880E28A95F1F75A980895FF9239
:104B40000F931F93CF93DF93EC018C01060F111D80
:104B5000C017D10741F0F9900E94252568E08F2DFC
:104B60000E947F25F5CFCDB7DEB7E5E00C94022794
:104B70001F920F920FB60F9211240F931F932F9332
:104B80003F934F935F936F937F938F939F93AF93D5
:104B9000BF93EF93FF93CF93DF931F92CDB7DEB711
:104BA00019820E941D25CE0101960E942B25082FF7
:104BB000069506950695902F96959570202F257051
:104BC000920F292F237096959695920F87708913CF
:104BD0005FC0898181115CC0043008F059C080E158
:104BE0008A95F1F75A9A529A82E08A95F1F700C0B5
:104BF0005A9888E0089F80011124D801A85FBE4F11
:104C00001696ED91FC9117973097A9F060913D01B0
:104C100070913E0114962D913C911597260F371FE8
:104C200011968D919C911297680F791F13964C9154
:104C300013978C910995F801E85FFE4F6381662315
:104C400051F080913D0190913E0124813581820F88
:104C5000931F0E949F250E94252580E18A95F1F7E8
:104C60005A9852985A9A80E18A95F1F7F801E85FCC
:104C7000FE4F6081662351F080913D0190913E018D
:104C800021813281820F931F0E9453250E941D258E
:104C90000F90DF91CF91FF91EF91BF91AF919F91D5
:104CA0008F917F916F915F914F913F912F911F91C4
:104CB0000F910F900FBE0F901F9018950F931F9399
:104CC000CF93DF93843091050CF06DC0EC01F89424
:104CD000529A5A9885E08A95F1F700009C2F969594
:104CE00095702C2F2570920F892F8370969596952D
:104CF00023E0CC0FDD1F2A95E1F7980F8E01092BD9
:104D00000E94252584E08A95F1F700C068E0802F95
:104D10000E947F2580E18A95F1F752985A9A4A9924
:104D200002C000C0FCCF87E090E04A9B08C001971A
:104D300021F4529A5A9A789436C000C0F6CFFE01F8
:104D4000E85FFE4F6381662381F080913D01909181
:104D50003E0124813581820F931F0E9453258111CA
:104D600004C0529A5A9A78941FC00E941D2580E26E
:104D70008A95F1F75A98529A80E18A95F1F7C85FBF
:104D8000DE4F6881662351F080913D0190913E0194
:104D900029813A81820F931F0E949F250E94252519
:104DA000789481E001C080E0DF91CF911F910F9155
:104DB00008952F923F924F925F926F927F928F92BF
:104DC0009F92AF92BF92CF92DF92EF92FF920F939A
:104DD0001F93CF93DF93CDB7DEB7CA1BDB0B0FB6A4
:104DE000F894DEBF0FBECDBF09942A883988488861
:104DF0005F846E847D848C849B84AA84B984C884F7
:104E0000DF80EE80FD800C811B81AA81B981CE0FED
:104E1000D11D0FB6F894DEBF0FBECDBFED010895D2
:104E2000F999FECF92BD81BDF89A992780B5089572
:104E3000A8E1B0E042E050E00C945427DC01A40F5C
:104E4000B51F4150504048F0CB01840F951F2E9163
:104E50000E942F2741505040D0F70895262FF999EE
:104E6000FECF92BD81BDF89A019700B4021639F0C9
:104E70001FBA20BD0FB6F894FA9AF99A0FBE08959A
:104E80000396272F0E942F270E942E27252F0E944E
:104E90002F27242F0C942F270196272F0E942F278E
:104EA0000C942E27DC01CB01FC01F999FECF06C042
:104EB000F2BDE1BDF89A319600B40D9241505040D8
:104EC000B8F7089597FB072E16F4009407D077FDE6
:104ED00009D00E949E2707FC05D03EF4909581954D
:104EE0009F4F0895709561957F4F0895A1E21A2E06
:104EF000AA1BBB1BFD010DC0AA1FBB1FEE1FFF1F7E
:104F0000A217B307E407F50720F0A21BB30BE40BCD
:104F1000F50B661F771F881F991F1A9469F7609514
:104F20007095809590959B01AC01BD01CF010895CE
:104F3000EE0FFF1F0590F491E02D0994AA1BBB1BF7
:104F400051E107C0AA1FBB1FA617B70710F0A61B89
:104F5000B70B881F991F5A95A9F780959095BC01AA
:104F6000CD010895FB01DC0104C08D9101908019F1
:104F700021F441505040C8F7881B990B0895FB015C
:104F8000DC0102C001900D9241505040D8F70895C5
:044F9000F894FFCFC3
:104F94002D01000001FF00010000000100000000DD
:104FA40000000005010000000406000000000000ED
:104FB40001C521830C7A0C7C0C7B0CC8002A0022CE
:104FC400FFFF00224C0007000000000000E1016622
:0A4FD40097C63435F6F73133323654
:00000001FF
